{"abi":[{"type":"constructor","inputs":[{"name":"_usdcTokenAddress","type":"address","internalType":"address"},{"name":"_moderators","type":"address[]","internalType":"address[]"},{"name":"_merchant","type":"address","internalType":"address"}],"stateMutability":"nonpayable"},{"type":"function","name":"ADMIN_ROLE","inputs":[],"outputs":[{"name":"","type":"bytes32","internalType":"bytes32"}],"stateMutability":"view"},{"type":"function","name":"DEFAULT_ADMIN_ROLE","inputs":[],"outputs":[{"name":"","type":"bytes32","internalType":"bytes32"}],"stateMutability":"view"},{"type":"function","name":"DISPUTE_FEE","inputs":[],"outputs":[{"name":"","type":"uint256","internalType":"uint256"}],"stateMutability":"view"},{"type":"function","name":"DISPUTE_PERIOD","inputs":[],"outputs":[{"name":"","type":"uint256","internalType":"uint256"}],"stateMutability":"view"},{"type":"function","name":"MERCHANT_FEE_PERCENTAGE","inputs":[],"outputs":[{"name":"","type":"uint256","internalType":"uint256"}],"stateMutability":"view"},{"type":"function","name":"MERCHANT_ROLE","inputs":[],"outputs":[{"name":"","type":"bytes32","internalType":"bytes32"}],"stateMutability":"view"},{"type":"function","name":"MODERATOR_ROLE","inputs":[],"outputs":[{"name":"","type":"bytes32","internalType":"bytes32"}],"stateMutability":"view"},{"type":"function","name":"REQUIRED_APPROVALS","inputs":[],"outputs":[{"name":"","type":"uint8","internalType":"uint8"}],"stateMutability":"view"},{"type":"function","name":"approveDispute","inputs":[{"name":"transactionId","type":"uint256","internalType":"uint256"},{"name":"buyerWon","type":"bool","internalType":"bool"}],"outputs":[],"stateMutability":"nonpayable"},{"type":"function","name":"createTransaction","inputs":[{"name":"amount","type":"uint256","internalType":"uint256"}],"outputs":[],"stateMutability":"nonpayable"},{"type":"function","name":"disputeTransaction","inputs":[{"name":"transactionId","type":"uint256","internalType":"uint256"}],"outputs":[],"stateMutability":"nonpayable"},{"type":"function","name":"getMerchantTransactions","inputs":[],"outputs":[{"name":"","type":"uint256[]","internalType":"uint256[]"}],"stateMutability":"view"},{"type":"function","name":"getRoleAdmin","inputs":[{"name":"role","type":"bytes32","internalType":"bytes32"}],"outputs":[{"name":"","type":"bytes32","internalType":"bytes32"}],"stateMutability":"view"},{"type":"function","name":"grantRole","inputs":[{"name":"role","type":"bytes32","internalType":"bytes32"},{"name":"account","type":"address","internalType":"address"}],"outputs":[],"stateMutability":"nonpayable"},{"type":"function","name":"hasRole","inputs":[{"name":"role","type":"bytes32","internalType":"bytes32"},{"name":"account","type":"address","internalType":"address"}],"outputs":[{"name":"","type":"bool","internalType":"bool"}],"stateMutability":"view"},{"type":"function","name":"i_merchant","inputs":[],"outputs":[{"name":"","type":"address","internalType":"address"}],"stateMutability":"view"},{"type":"function","name":"releasePayment","inputs":[{"name":"transactionId","type":"uint256","internalType":"uint256"}],"outputs":[],"stateMutability":"nonpayable"},{"type":"function","name":"renounceRole","inputs":[{"name":"role","type":"bytes32","internalType":"bytes32"},{"name":"account","type":"address","internalType":"address"}],"outputs":[],"stateMutability":"nonpayable"},{"type":"function","name":"revokeRole","inputs":[{"name":"role","type":"bytes32","internalType":"bytes32"},{"name":"account","type":"address","internalType":"address"}],"outputs":[],"stateMutability":"nonpayable"},{"type":"function","name":"s_transactionCount","inputs":[],"outputs":[{"name":"","type":"uint256","internalType":"uint256"}],"stateMutability":"view"},{"type":"function","name":"s_transactions","inputs":[{"name":"","type":"uint256","internalType":"uint256"}],"outputs":[{"name":"buyer","type":"address","internalType":"address"},{"name":"amount","type":"uint256","internalType":"uint256"},{"name":"timestamp","type":"uint256","internalType":"uint256"},{"name":"isDisputed","type":"bool","internalType":"bool"},{"name":"isResolved","type":"bool","internalType":"bool"},{"name":"approvalCount","type":"uint8","internalType":"uint8"}],"stateMutability":"view"},{"type":"function","name":"s_usdcToken","inputs":[],"outputs":[{"name":"","type":"address","internalType":"contract IERC20"}],"stateMutability":"view"},{"type":"function","name":"supportsInterface","inputs":[{"name":"interfaceId","type":"bytes4","internalType":"bytes4"}],"outputs":[{"name":"","type":"bool","internalType":"bool"}],"stateMutability":"view"},{"type":"function","name":"withdrawFees","inputs":[{"name":"amount","type":"uint256","internalType":"uint256"}],"outputs":[],"stateMutability":"nonpayable"},{"type":"event","name":"DisputeApproved","inputs":[{"name":"transactionId","type":"uint256","indexed":true,"internalType":"uint256"},{"name":"moderator","type":"address","indexed":false,"internalType":"address"}],"anonymous":false},{"type":"event","name":"DisputeResolved","inputs":[{"name":"transactionId","type":"uint256","indexed":true,"internalType":"uint256"},{"name":"buyerWon","type":"bool","indexed":false,"internalType":"bool"}],"anonymous":false},{"type":"event","name":"FeesWithdrawn","inputs":[{"name":"admin","type":"address","indexed":true,"internalType":"address"},{"name":"amount","type":"uint256","indexed":false,"internalType":"uint256"}],"anonymous":false},{"type":"event","name":"PaymentReleased","inputs":[{"name":"transactionId","type":"uint256","indexed":true,"internalType":"uint256"},{"name":"amount","type":"uint256","indexed":false,"internalType":"uint256"},{"name":"fee","type":"uint256","indexed":false,"internalType":"uint256"}],"anonymous":false},{"type":"event","name":"RoleAdminChanged","inputs":[{"name":"role","type":"bytes32","indexed":true,"internalType":"bytes32"},{"name":"previousAdminRole","type":"bytes32","indexed":true,"internalType":"bytes32"},{"name":"newAdminRole","type":"bytes32","indexed":true,"internalType":"bytes32"}],"anonymous":false},{"type":"event","name":"RoleGranted","inputs":[{"name":"role","type":"bytes32","indexed":true,"internalType":"bytes32"},{"name":"account","type":"address","indexed":true,"internalType":"address"},{"name":"sender","type":"address","indexed":true,"internalType":"address"}],"anonymous":false},{"type":"event","name":"RoleRevoked","inputs":[{"name":"role","type":"bytes32","indexed":true,"internalType":"bytes32"},{"name":"account","type":"address","indexed":true,"internalType":"address"},{"name":"sender","type":"address","indexed":true,"internalType":"address"}],"anonymous":false},{"type":"event","name":"TransactionCreated","inputs":[{"name":"transactionId","type":"uint256","indexed":true,"internalType":"uint256"},{"name":"buyer","type":"address","indexed":false,"internalType":"address"},{"name":"amount","type":"uint256","indexed":false,"internalType":"uint256"}],"anonymous":false},{"type":"event","name":"TransactionDisputed","inputs":[{"name":"transactionId","type":"uint256","indexed":true,"internalType":"uint256"}],"anonymous":false}],"bytecode":{"object":"0x60a06040523480156200001157600080fd5b5060405162001b2d38038062001b2d833981016040819052620000349162000263565b8151600311156200008b5760405162461bcd60e51b815260206004820152601560248201527f4e6f7420656e6f756768206d6f64657261746f72730000000000000000000000604482015260640160405180910390fd5b600180546001600160a01b0319166001600160a01b03858116919091179091558116608052620000bd6000336200018f565b620000e97fa49807205ce4d355092ef5a8a18f56e8913cf4a201fbe287825b095693c21775336200018f565b620001157f3c4a2d89ed8b4cf4347fec87df1c38410f8fc538bf9fd64c10f2717bc0feff36826200018f565b60005b82518110156200018557620001707f71f3d55856e4058ed06ee057d79ada615f65cdf5f9ee88181b914225088f834f8483815181106200015c576200015c6200035e565b60200260200101516200018f60201b60201c565b806200017c8162000374565b91505062000118565b505050506200039c565b6000828152602081815260408083206001600160a01b038516845290915290205460ff166200022c576000828152602081815260408083206001600160a01b03851684529091529020805460ff19166001179055620001eb3390565b6001600160a01b0316816001600160a01b0316837f2f8788117e7eff1d82e926ec794901d17c78024a50270940304540a733656f0d60405160405180910390a45b5050565b80516001600160a01b03811681146200024857600080fd5b919050565b634e487b7160e01b600052604160045260246000fd5b6000806000606084860312156200027957600080fd5b620002848462000230565b602085810151919450906001600160401b0380821115620002a457600080fd5b818701915087601f830112620002b957600080fd5b815181811115620002ce57620002ce6200024d565b8060051b604051601f19603f83011681018181108582111715620002f657620002f66200024d565b60405291825284820192508381018501918a8311156200031557600080fd5b938501935b828510156200033e576200032e8562000230565b845293850193928501926200031a565b809750505050505050620003556040850162000230565b90509250925092565b634e487b7160e01b600052603260045260246000fd5b6000600182016200039557634e487b7160e01b600052601160045260246000fd5b5060010190565b608051611767620003c66000396000818161028a01528181610a77015261110f01526117676000f3fe608060405234801561001057600080fd5b50600436106101585760003560e01c806382820635116100c3578063ccf7d9671161007c578063ccf7d9671461033a578063d547741f1461034d578063da165ddb14610360578063dc755e9d14610373578063e70f331a1461037d578063ec3fe3de1461038657600080fd5b806382820635146102d357806388685cd9146102db57806391d14854146102ee578063a217fddf14610301578063a5bbe22b14610309578063b3d358391461031357600080fd5b80634fdb1ace116101155780634fdb1ace14610206578063599c5533146102315780635e318e071461024b57806375b238fc1461025e57806378c84a7d14610285578063797669c9146102ac57600080fd5b806301ffc9a71461015d578063248a9ca3146101855780632f2ff15d146101b657806335833c34146101cb57806336568abe146101e057806349bf2caf146101f3575b600080fd5b61017061016b366004611420565b61041b565b60405190151581526020015b60405180910390f35b6101a861019336600461144a565b60009081526020819052604090206001015490565b60405190815260200161017c565b6101c96101c4366004611463565b610452565b005b6101d361047c565b60405161017c919061149f565b6101c96101ee366004611463565b61050a565b6101c961020136600461144a565b61058d565b600154610219906001600160a01b031681565b6040516001600160a01b03909116815260200161017c565b610239600381565b60405160ff909116815260200161017c565b6101c961025936600461144a565b610795565b6101a87fa49807205ce4d355092ef5a8a18f56e8913cf4a201fbe287825b095693c2177581565b6102197f000000000000000000000000000000000000000000000000000000000000000081565b6101a87f71f3d55856e4058ed06ee057d79ada615f65cdf5f9ee88181b914225088f834f81565b6101a8606481565b6101c96102e936600461144a565b61093b565b6101706102fc366004611463565b610b54565b6101a8600081565b6101a86201518081565b6101a87f3c4a2d89ed8b4cf4347fec87df1c38410f8fc538bf9fd64c10f2717bc0feff3681565b6101c96103483660046114f1565b610b7d565b6101c961035b366004611463565b610d65565b6101c961036e36600461144a565b610d8a565b6101a86298968081565b6101a860035481565b6103dd61039436600461144a565b600260208190526000918252604090912080546001820154928201546003909201546001600160a01b0390911692919060ff808216916101008104821691620100009091041686565b604080516001600160a01b039097168752602087019590955293850192909252151560608401521515608083015260ff1660a082015260c00161017c565b60006001600160e01b03198216637965db0b60e01b148061044c57506301ffc9a760e01b6001600160e01b03198316145b92915050565b60008281526020819052604090206001015461046d81610eb9565b6104778383610ec6565b505050565b6060600060035467ffffffffffffffff81111561049b5761049b611516565b6040519080825280602002602001820160405280156104c4578160200160208202803683370190505b50905060005b60035481101561050457808282815181106104e7576104e761152c565b6020908102919091010152806104fc81611558565b9150506104ca565b50919050565b6001600160a01b038116331461057f5760405162461bcd60e51b815260206004820152602f60248201527f416363657373436f6e74726f6c3a2063616e206f6e6c792072656e6f756e636560448201526e103937b632b9903337b91039b2b63360891b60648201526084015b60405180910390fd5b6105898282610f4a565b5050565b600081815260026020526040902080546001600160a01b031633146105ed5760405162461bcd60e51b81526020600482015260166024820152754f6e6c792062757965722063616e206469737075746560501b6044820152606401610576565b6201518081600201546106009190611571565b4211156106465760405162461bcd60e51b8152602060048201526014602482015273111a5cdc1d5d19481c195c9a5bd908195b99195960621b6044820152606401610576565b600381015460ff161561068e5760405162461bcd60e51b815260206004820152601060248201526f105b1c9958591e48191a5cdc1d5d195960821b6044820152606401610576565b6001546040516323b872dd60e01b81523360048201523060248201526298968060448201526001600160a01b03909116906323b872dd906064016020604051808303816000875af11580156106e7573d6000803e3d6000fd5b505050506040513d601f19601f8201168201806040525081019061070b9190611584565b6107575760405162461bcd60e51b815260206004820152601b60248201527f4469737075746520666565207472616e73666572206661696c656400000000006044820152606401610576565b60038101805460ff1916600117905560405182907f61e60550bebc2b32282d4baacb9094d9c194d45912cea3e6b10440d24bf5d0fa90600090a25050565b7fa49807205ce4d355092ef5a8a18f56e8913cf4a201fbe287825b095693c217756107bf81610eb9565b6001546040516370a0823160e01b81523060048201526001600160a01b03909116906370a0823190602401602060405180830381865afa158015610807573d6000803e3d6000fd5b505050506040513d601f19601f8201168201806040525081019061082b91906115a1565b8211156108715760405162461bcd60e51b8152602060048201526014602482015273496e73756666696369656e742062616c616e636560601b6044820152606401610576565b60015460405163a9059cbb60e01b8152336004820152602481018490526001600160a01b039091169063a9059cbb906044016020604051808303816000875af11580156108c2573d6000803e3d6000fd5b505050506040513d601f19601f820116820180604052508101906108e69190611584565b6109025760405162461bcd60e51b8152600401610576906115ba565b60405182815233907fc0819c13be868895eb93e40eaceb96de976442fa1d404e5c55f14bb65a8c489a9060200160405180910390a25050565b7f3c4a2d89ed8b4cf4347fec87df1c38410f8fc538bf9fd64c10f2717bc0feff3661096581610eb9565b6000828152600260205260409020600381015460ff16156109c85760405162461bcd60e51b815260206004820152601760248201527f5472616e73616374696f6e2069732064697370757465640000000000000000006044820152606401610576565b6201518081600201546109db9190611571565b4211610a295760405162461bcd60e51b815260206004820152601860248201527f4469737075746520706572696f64206e6f7420656e64656400000000000000006044820152606401610576565b600061271060648360010154610a3f91906115e3565b610a4991906115fa565b90506000818360010154610a5d919061161c565b60015460405163a9059cbb60e01b81526001600160a01b037f0000000000000000000000000000000000000000000000000000000000000000811660048301526024820184905292935091169063a9059cbb906044016020604051808303816000875af1158015610ad2573d6000803e3d6000fd5b505050506040513d601f19601f82011682018060405250810190610af69190611584565b610b125760405162461bcd60e51b8152600401610576906115ba565b604080518281526020810184905286917f3c70b1e8034b5738ec77fbfdaa4d28906a0b3160018d67a2dc7b534e53e33fe0910160405180910390a25050505050565b6000918252602082815260408084206001600160a01b0393909316845291905290205460ff1690565b7f71f3d55856e4058ed06ee057d79ada615f65cdf5f9ee88181b914225088f834f610ba781610eb9565b6000838152600260205260409020600381015460ff16610c095760405162461bcd60e51b815260206004820152601860248201527f5472616e73616374696f6e206e6f7420646973707574656400000000000000006044820152606401610576565b6003810154610100900460ff1615610c635760405162461bcd60e51b815260206004820152601860248201527f4469737075746520616c7265616479207265736f6c76656400000000000000006044820152606401610576565b33600090815260048201602052604090205460ff1615610cb85760405162461bcd60e51b815260206004820152601060248201526f105b1c9958591e48185c1c1c9bdd995960821b6044820152606401610576565b3360009081526004820160205260409020805460ff1916600117905560038101805462010000900460ff16906002610cef8361162f565b825460ff9182166101009390930a92830291909202199091161790555060405133815284907fe877db1904a9544a057fc69e5d3d60105163902217060d44c3d12f7fd1c8fab09060200160405180910390a260038181015462010000900460ff1610610d5f57610d5f8484610faf565b50505050565b600082815260208190526040902060010154610d8081610eb9565b6104778383610f4a565b6001546040516323b872dd60e01b8152336004820152306024820152604481018390526001600160a01b03909116906323b872dd906064016020604051808303816000875af1158015610de1573d6000803e3d6000fd5b505050506040513d601f19601f82011682018060405250810190610e059190611584565b610e215760405162461bcd60e51b8152600401610576906115ba565b6003805460008181526002602081815260409283902080546001600160a01b031916339081178255600182018890554293820193909355948501805462ffffff191690558251918252810185905291929183917ffd27d176b6ebb21e0182c0e43df5818e0d632867e1eb47c383c58d221205fce3910160405180910390a260038054906000610eaf83611558565b9190505550505050565b610ec38133611219565b50565b610ed08282610b54565b610589576000828152602081815260408083206001600160a01b03851684529091529020805460ff19166001179055610f063390565b6001600160a01b0316816001600160a01b0316837f2f8788117e7eff1d82e926ec794901d17c78024a50270940304540a733656f0d60405160405180910390a45050565b610f548282610b54565b15610589576000828152602081815260408083206001600160a01b0385168085529252808320805460ff1916905551339285917ff6391f5c32d9c69d2a47ea670b442974b53935d1edc7fd64eb21e047a839171b9190a45050565b600082815260026020526040902060038082015462010000900460ff1610156110115760405162461bcd60e51b81526020600482015260146024820152734e6f7420656e6f75676820617070726f76616c7360601b6044820152606401610576565b60038101805461ff00191661010017905581156110f0576001805482549183015460405163a9059cbb60e01b81526001600160a01b039384166004820152602481019190915291169063a9059cbb906044016020604051808303816000875af1158015611082573d6000803e3d6000fd5b505050506040513d601f19601f820116820180604052508101906110a69190611584565b6110eb5760405162461bcd60e51b81526020600482015260166024820152751499599d5b99081d1bc8189d5e595c8819985a5b195960521b6044820152606401610576565b6111d8565b600180549082015460405163a9059cbb60e01b81526001600160a01b037f000000000000000000000000000000000000000000000000000000000000000081166004830152602482019290925291169063a9059cbb906044016020604051808303816000875af1158015611168573d6000803e3d6000fd5b505050506040513d601f19601f8201168201806040525081019061118c9190611584565b6111d85760405162461bcd60e51b815260206004820152601b60248201527f5472616e7366657220746f206d65726368616e74206661696c656400000000006044820152606401610576565b827f5a87909bff68caaaaf0b3fd9c74eeccc928832f879315e5c6fb7a73612f26c0c8360405161120c911515815260200190565b60405180910390a2505050565b6112238282610b54565b6105895761123b816001600160a01b0316601461127d565b61124683602061127d565b604051602001611257929190611672565b60408051601f198184030181529082905262461bcd60e51b8252610576916004016116e7565b6060600061128c8360026115e3565b611297906002611571565b67ffffffffffffffff8111156112af576112af611516565b6040519080825280601f01601f1916602001820160405280156112d9576020820181803683370190505b509050600360fc1b816000815181106112f4576112f461152c565b60200101906001600160f81b031916908160001a905350600f60fb1b816001815181106113235761132361152c565b60200101906001600160f81b031916908160001a90535060006113478460026115e3565b611352906001611571565b90505b60018111156113ca576f181899199a1a9b1b9c1cb0b131b232b360811b85600f16601081106113865761138661152c565b1a60f81b82828151811061139c5761139c61152c565b60200101906001600160f81b031916908160001a90535060049490941c936113c38161171a565b9050611355565b5083156114195760405162461bcd60e51b815260206004820181905260248201527f537472696e67733a20686578206c656e67746820696e73756666696369656e746044820152606401610576565b9392505050565b60006020828403121561143257600080fd5b81356001600160e01b03198116811461141957600080fd5b60006020828403121561145c57600080fd5b5035919050565b6000806040838503121561147657600080fd5b8235915060208301356001600160a01b038116811461149457600080fd5b809150509250929050565b6020808252825182820181905260009190848201906040850190845b818110156114d7578351835292840192918401916001016114bb565b50909695505050505050565b8015158114610ec357600080fd5b6000806040838503121561150457600080fd5b823591506020830135611494816114e3565b634e487b7160e01b600052604160045260246000fd5b634e487b7160e01b600052603260045260246000fd5b634e487b7160e01b600052601160045260246000fd5b60006001820161156a5761156a611542565b5060010190565b8082018082111561044c5761044c611542565b60006020828403121561159657600080fd5b8151611419816114e3565b6000602082840312156115b357600080fd5b5051919050565b6020808252600f908201526e151c985b9cd9995c8819985a5b1959608a1b604082015260600190565b808202811582820484141761044c5761044c611542565b60008261161757634e487b7160e01b600052601260045260246000fd5b500490565b8181038181111561044c5761044c611542565b600060ff821660ff810361164557611645611542565b60010192915050565b60005b83811015611669578181015183820152602001611651565b50506000910152565b7f416363657373436f6e74726f6c3a206163636f756e74200000000000000000008152600083516116aa81601785016020880161164e565b7001034b99036b4b9b9b4b733903937b6329607d1b60179184019182015283516116db81602884016020880161164e565b01602801949350505050565b602081526000825180602084015261170681604085016020870161164e565b601f01601f19169190910160400192915050565b60008161172957611729611542565b50600019019056fea26469706673582212204865517a5c9c2b2ff1af550d870349e9ddec411e6aac03b56945f7400399db5064736f6c63430008120033","linkReferences":{}},"methodIdentifiers":{"ADMIN_ROLE()":"75b238fc","DEFAULT_ADMIN_ROLE()":"a217fddf","DISPUTE_FEE()":"dc755e9d","DISPUTE_PERIOD()":"a5bbe22b","MERCHANT_FEE_PERCENTAGE()":"82820635","MERCHANT_ROLE()":"b3d35839","MODERATOR_ROLE()":"797669c9","REQUIRED_APPROVALS()":"599c5533","approveDispute(uint256,bool)":"ccf7d967","createTransaction(uint256)":"da165ddb","disputeTransaction(uint256)":"49bf2caf","getMerchantTransactions()":"35833c34","getRoleAdmin(bytes32)":"248a9ca3","grantRole(bytes32,address)":"2f2ff15d","hasRole(bytes32,address)":"91d14854","i_merchant()":"78c84a7d","releasePayment(uint256)":"88685cd9","renounceRole(bytes32,address)":"36568abe","revokeRole(bytes32,address)":"d547741f","s_transactionCount()":"e70f331a","s_transactions(uint256)":"ec3fe3de","s_usdcToken()":"4fdb1ace","supportsInterface(bytes4)":"01ffc9a7","withdrawFees(uint256)":"5e318e07"},"id":36}