{"abi":[{"type":"constructor","inputs":[{"name":"_usdcTokenAddress","type":"address","internalType":"address"},{"name":"_merchant","type":"address","internalType":"address"}],"stateMutability":"nonpayable"},{"type":"function","name":"DEFAULT_ADMIN_ROLE","inputs":[],"outputs":[{"name":"","type":"bytes32","internalType":"bytes32"}],"stateMutability":"view"},{"type":"function","name":"DISPUTE_FEE","inputs":[],"outputs":[{"name":"","type":"uint256","internalType":"uint256"}],"stateMutability":"view"},{"type":"function","name":"DISPUTE_PERIOD","inputs":[],"outputs":[{"name":"","type":"uint256","internalType":"uint256"}],"stateMutability":"view"},{"type":"function","name":"MERCHANT_ROLE","inputs":[],"outputs":[{"name":"","type":"bytes32","internalType":"bytes32"}],"stateMutability":"view"},{"type":"function","name":"MODERATOR_ROLE","inputs":[],"outputs":[{"name":"","type":"bytes32","internalType":"bytes32"}],"stateMutability":"view"},{"type":"function","name":"createTransaction","inputs":[{"name":"amount","type":"uint256","internalType":"uint256"}],"outputs":[],"stateMutability":"nonpayable"},{"type":"function","name":"disputeTransaction","inputs":[{"name":"transactionId","type":"uint256","internalType":"uint256"}],"outputs":[],"stateMutability":"nonpayable"},{"type":"function","name":"getMerchantTransactions","inputs":[],"outputs":[{"name":"","type":"uint256[]","internalType":"uint256[]"}],"stateMutability":"view"},{"type":"function","name":"getRoleAdmin","inputs":[{"name":"role","type":"bytes32","internalType":"bytes32"}],"outputs":[{"name":"","type":"bytes32","internalType":"bytes32"}],"stateMutability":"view"},{"type":"function","name":"grantRole","inputs":[{"name":"role","type":"bytes32","internalType":"bytes32"},{"name":"account","type":"address","internalType":"address"}],"outputs":[],"stateMutability":"nonpayable"},{"type":"function","name":"hasRole","inputs":[{"name":"role","type":"bytes32","internalType":"bytes32"},{"name":"account","type":"address","internalType":"address"}],"outputs":[{"name":"","type":"bool","internalType":"bool"}],"stateMutability":"view"},{"type":"function","name":"i_merchant","inputs":[],"outputs":[{"name":"","type":"address","internalType":"address"}],"stateMutability":"view"},{"type":"function","name":"releasePayment","inputs":[{"name":"transactionId","type":"uint256","internalType":"uint256"}],"outputs":[],"stateMutability":"nonpayable"},{"type":"function","name":"renounceRole","inputs":[{"name":"role","type":"bytes32","internalType":"bytes32"},{"name":"account","type":"address","internalType":"address"}],"outputs":[],"stateMutability":"nonpayable"},{"type":"function","name":"resolveDispute","inputs":[{"name":"transactionId","type":"uint256","internalType":"uint256"},{"name":"buyerWon","type":"bool","internalType":"bool"}],"outputs":[],"stateMutability":"nonpayable"},{"type":"function","name":"revokeRole","inputs":[{"name":"role","type":"bytes32","internalType":"bytes32"},{"name":"account","type":"address","internalType":"address"}],"outputs":[],"stateMutability":"nonpayable"},{"type":"function","name":"s_transactionCount","inputs":[],"outputs":[{"name":"","type":"uint256","internalType":"uint256"}],"stateMutability":"view"},{"type":"function","name":"s_transactions","inputs":[{"name":"","type":"uint256","internalType":"uint256"}],"outputs":[{"name":"buyer","type":"address","internalType":"address"},{"name":"amount","type":"uint256","internalType":"uint256"},{"name":"timestamp","type":"uint256","internalType":"uint256"},{"name":"isDisputed","type":"bool","internalType":"bool"},{"name":"isResolved","type":"bool","internalType":"bool"}],"stateMutability":"view"},{"type":"function","name":"s_usdcToken","inputs":[],"outputs":[{"name":"","type":"address","internalType":"contract IERC20"}],"stateMutability":"view"},{"type":"function","name":"supportsInterface","inputs":[{"name":"interfaceId","type":"bytes4","internalType":"bytes4"}],"outputs":[{"name":"","type":"bool","internalType":"bool"}],"stateMutability":"view"},{"type":"function","name":"withdrawFees","inputs":[{"name":"amount","type":"uint256","internalType":"uint256"}],"outputs":[],"stateMutability":"nonpayable"},{"type":"event","name":"DisputeResolved","inputs":[{"name":"transactionId","type":"uint256","indexed":true,"internalType":"uint256"},{"name":"buyerWon","type":"bool","indexed":false,"internalType":"bool"}],"anonymous":false},{"type":"event","name":"FeesWithdrawn","inputs":[{"name":"admin","type":"address","indexed":true,"internalType":"address"},{"name":"amount","type":"uint256","indexed":false,"internalType":"uint256"}],"anonymous":false},{"type":"event","name":"PaymentReleased","inputs":[{"name":"transactionId","type":"uint256","indexed":true,"internalType":"uint256"},{"name":"amount","type":"uint256","indexed":false,"internalType":"uint256"}],"anonymous":false},{"type":"event","name":"RoleAdminChanged","inputs":[{"name":"role","type":"bytes32","indexed":true,"internalType":"bytes32"},{"name":"previousAdminRole","type":"bytes32","indexed":true,"internalType":"bytes32"},{"name":"newAdminRole","type":"bytes32","indexed":true,"internalType":"bytes32"}],"anonymous":false},{"type":"event","name":"RoleGranted","inputs":[{"name":"role","type":"bytes32","indexed":true,"internalType":"bytes32"},{"name":"account","type":"address","indexed":true,"internalType":"address"},{"name":"sender","type":"address","indexed":true,"internalType":"address"}],"anonymous":false},{"type":"event","name":"RoleRevoked","inputs":[{"name":"role","type":"bytes32","indexed":true,"internalType":"bytes32"},{"name":"account","type":"address","indexed":true,"internalType":"address"},{"name":"sender","type":"address","indexed":true,"internalType":"address"}],"anonymous":false},{"type":"event","name":"TransactionCreated","inputs":[{"name":"transactionId","type":"uint256","indexed":true,"internalType":"uint256"},{"name":"buyer","type":"address","indexed":false,"internalType":"address"},{"name":"amount","type":"uint256","indexed":false,"internalType":"uint256"}],"anonymous":false},{"type":"event","name":"TransactionDisputed","inputs":[{"name":"transactionId","type":"uint256","indexed":true,"internalType":"uint256"}],"anonymous":false}],"bytecode":{"object":"0x60a06040523480156200001157600080fd5b50604051620016ed380380620016ed833981016040819052620000349162000158565b600180546001600160a01b0319166001600160a01b03848116919091179091558116608052620000666000336200009a565b620000927f3c4a2d89ed8b4cf4347fec87df1c38410f8fc538bf9fd64c10f2717bc0feff36826200009a565b505062000190565b6000828152602081815260408083206001600160a01b038516845290915290205460ff1662000137576000828152602081815260408083206001600160a01b03851684529091529020805460ff19166001179055620000f63390565b6001600160a01b0316816001600160a01b0316837f2f8788117e7eff1d82e926ec794901d17c78024a50270940304540a733656f0d60405160405180910390a45b5050565b80516001600160a01b03811681146200015357600080fd5b919050565b600080604083850312156200016c57600080fd5b62000177836200013b565b915062000187602084016200013b565b90509250929050565b608051611533620001ba6000396000818161023b015281816105e90152610c9c01526115336000f3fe608060405234801561001057600080fd5b50600436106101375760003560e01c8063797669c9116100b8578063b3d358391161007c578063b3d35839146102bc578063d547741f146102e3578063da165ddb146102f6578063dc755e9d14610309578063e70f331a14610313578063ec3fe3de1461031c57600080fd5b8063797669c91461025d57806388685cd91461028457806391d1485414610297578063a217fddf146102aa578063a5bbe22b146102b257600080fd5b806336568abe116100ff57806336568abe146101d257806349bf2caf146101e55780634fdb1ace146101f85780635e318e071461022357806378c84a7d1461023657600080fd5b806301ffc9a71461013c578063248a9ca3146101645780632f2ff15d1461019557806334b25ee2146101aa57806335833c34146101bd575b600080fd5b61014f61014a366004611240565b61039f565b60405190151581526020015b60405180910390f35b61018761017236600461126a565b60009081526020819052604090206001015490565b60405190815260200161015b565b6101a86101a3366004611283565b6103d6565b005b6101a86101b83660046112cd565b610400565b6101c56106f4565b60405161015b91906112f2565b6101a86101e0366004611283565b610782565b6101a86101f336600461126a565b610800565b60015461020b906001600160a01b031681565b6040516001600160a01b03909116815260200161015b565b6101a861023136600461126a565b610a08565b61020b7f000000000000000000000000000000000000000000000000000000000000000081565b6101877f71f3d55856e4058ed06ee057d79ada615f65cdf5f9ee88181b914225088f834f81565b6101a861029236600461126a565b610b8f565b61014f6102a5366004611283565b610d78565b610187600081565b6101876201518081565b6101877f3c4a2d89ed8b4cf4347fec87df1c38410f8fc538bf9fd64c10f2717bc0feff3681565b6101a86102f1366004611283565b610da1565b6101a861030436600461126a565b610dc6565b6101876298968081565b61018760035481565b61036961032a36600461126a565b600260208190526000918252604090912080546001820154928201546003909201546001600160a01b0390911692919060ff8082169161010090041685565b604080516001600160a01b039096168652602086019490945292840191909152151560608301521515608082015260a00161015b565b60006001600160e01b03198216637965db0b60e01b14806103d057506301ffc9a760e01b6001600160e01b03198316145b92915050565b6000828152602081905260409020600101546103f181610f43565b6103fb8383610f50565b505050565b7f71f3d55856e4058ed06ee057d79ada615f65cdf5f9ee88181b914225088f834f61042a81610f43565b6000838152600260205260409020600381015460ff166104915760405162461bcd60e51b815260206004820152601860248201527f5472616e73616374696f6e206e6f74206469737075746564000000000000000060448201526064015b60405180910390fd5b6003810154610100900460ff16156104eb5760405162461bcd60e51b815260206004820152601860248201527f4469737075746520616c7265616479207265736f6c76656400000000000000006044820152606401610488565b60038101805461ff00191661010017905582156105ca576001805482549183015460405163a9059cbb60e01b81526001600160a01b039384166004820152602481019190915291169063a9059cbb906044016020604051808303816000875af115801561055c573d6000803e3d6000fd5b505050506040513d601f19601f820116820180604052508101906105809190611336565b6105c55760405162461bcd60e51b81526020600482015260166024820152751499599d5b99081d1bc8189d5e595c8819985a5b195960521b6044820152606401610488565b6106b2565b600180549082015460405163a9059cbb60e01b81526001600160a01b037f000000000000000000000000000000000000000000000000000000000000000081166004830152602482019290925291169063a9059cbb906044016020604051808303816000875af1158015610642573d6000803e3d6000fd5b505050506040513d601f19601f820116820180604052508101906106669190611336565b6106b25760405162461bcd60e51b815260206004820152601b60248201527f5472616e7366657220746f206d65726368616e74206661696c656400000000006044820152606401610488565b837f5a87909bff68caaaaf0b3fd9c74eeccc928832f879315e5c6fb7a73612f26c0c846040516106e6911515815260200190565b60405180910390a250505050565b6060600060035467ffffffffffffffff81111561071357610713611353565b60405190808252806020026020018201604052801561073c578160200160208202803683370190505b50905060005b60035481101561077c578082828151811061075f5761075f611369565b60209081029190910101528061077481611395565b915050610742565b50919050565b6001600160a01b03811633146107f25760405162461bcd60e51b815260206004820152602f60248201527f416363657373436f6e74726f6c3a2063616e206f6e6c792072656e6f756e636560448201526e103937b632b9903337b91039b2b63360891b6064820152608401610488565b6107fc8282610fd4565b5050565b600081815260026020526040902080546001600160a01b031633146108605760405162461bcd60e51b81526020600482015260166024820152754f6e6c792062757965722063616e206469737075746560501b6044820152606401610488565b62015180816002015461087391906113ae565b4211156108b95760405162461bcd60e51b8152602060048201526014602482015273111a5cdc1d5d19481c195c9a5bd908195b99195960621b6044820152606401610488565b600381015460ff16156109015760405162461bcd60e51b815260206004820152601060248201526f105b1c9958591e48191a5cdc1d5d195960821b6044820152606401610488565b6001546040516323b872dd60e01b81523360048201523060248201526298968060448201526001600160a01b03909116906323b872dd906064016020604051808303816000875af115801561095a573d6000803e3d6000fd5b505050506040513d601f19601f8201168201806040525081019061097e9190611336565b6109ca5760405162461bcd60e51b815260206004820152601b60248201527f4469737075746520666565207472616e73666572206661696c656400000000006044820152606401610488565b60038101805460ff1916600117905560405182907f61e60550bebc2b32282d4baacb9094d9c194d45912cea3e6b10440d24bf5d0fa90600090a25050565b6000610a1381610f43565b6001546040516370a0823160e01b81523060048201526001600160a01b03909116906370a0823190602401602060405180830381865afa158015610a5b573d6000803e3d6000fd5b505050506040513d601f19601f82011682018060405250810190610a7f91906113c1565b821115610ac55760405162461bcd60e51b8152602060048201526014602482015273496e73756666696369656e742062616c616e636560601b6044820152606401610488565b60015460405163a9059cbb60e01b8152336004820152602481018490526001600160a01b039091169063a9059cbb906044016020604051808303816000875af1158015610b16573d6000803e3d6000fd5b505050506040513d601f19601f82011682018060405250810190610b3a9190611336565b610b565760405162461bcd60e51b8152600401610488906113da565b60405182815233907fc0819c13be868895eb93e40eaceb96de976442fa1d404e5c55f14bb65a8c489a9060200160405180910390a25050565b7f3c4a2d89ed8b4cf4347fec87df1c38410f8fc538bf9fd64c10f2717bc0feff36610bb981610f43565b6000828152600260205260409020600381015460ff1615610c1c5760405162461bcd60e51b815260206004820152601760248201527f5472616e73616374696f6e2069732064697370757465640000000000000000006044820152606401610488565b620151808160020154610c2f91906113ae565b4211610c7d5760405162461bcd60e51b815260206004820152601860248201527f4469737075746520706572696f64206e6f7420656e64656400000000000000006044820152606401610488565b600180549082015460405163a9059cbb60e01b81526001600160a01b037f000000000000000000000000000000000000000000000000000000000000000081166004830152602482019290925291169063a9059cbb906044016020604051808303816000875af1158015610cf5573d6000803e3d6000fd5b505050506040513d601f19601f82011682018060405250810190610d199190611336565b610d355760405162461bcd60e51b8152600401610488906113da565b827fc8ef479acdbffd729d96117b951d1c3ee85d98ef42699aec806bc4f0b522461d8260010154604051610d6b91815260200190565b60405180910390a2505050565b6000918252602082815260408084206001600160a01b0393909316845291905290205460ff1690565b600082815260208190526040902060010154610dbc81610f43565b6103fb8383610fd4565b6001546040516323b872dd60e01b8152336004820152306024820152604481018390526001600160a01b03909116906323b872dd906064016020604051808303816000875af1158015610e1d573d6000803e3d6000fd5b505050506040513d601f19601f82011682018060405250810190610e419190611336565b610e5d5760405162461bcd60e51b8152600401610488906113da565b600380546040805160a0810182523380825260208083018781524284860190815260006060860181815260808701828152898352600280875292899020975188546001600160a01b0319166001600160a01b039091161788559351600188015591519086015551939096018054965161ffff1990971693151561ff0019169390931761010096151596909602959095179091558151908152928301849052909182917ffd27d176b6ebb21e0182c0e43df5818e0d632867e1eb47c383c58d221205fce3910160405180910390a260038054906000610f3a83611395565b91905055505050565b610f4d8133611039565b50565b610f5a8282610d78565b6107fc576000828152602081815260408083206001600160a01b03851684529091529020805460ff19166001179055610f903390565b6001600160a01b0316816001600160a01b0316837f2f8788117e7eff1d82e926ec794901d17c78024a50270940304540a733656f0d60405160405180910390a45050565b610fde8282610d78565b156107fc576000828152602081815260408083206001600160a01b0385168085529252808320805460ff1916905551339285917ff6391f5c32d9c69d2a47ea670b442974b53935d1edc7fd64eb21e047a839171b9190a45050565b6110438282610d78565b6107fc5761105b816001600160a01b0316601461109d565b61106683602061109d565b604051602001611077929190611427565b60408051601f198184030181529082905262461bcd60e51b82526104889160040161149c565b606060006110ac8360026114cf565b6110b79060026113ae565b67ffffffffffffffff8111156110cf576110cf611353565b6040519080825280601f01601f1916602001820160405280156110f9576020820181803683370190505b509050600360fc1b8160008151811061111457611114611369565b60200101906001600160f81b031916908160001a905350600f60fb1b8160018151811061114357611143611369565b60200101906001600160f81b031916908160001a90535060006111678460026114cf565b6111729060016113ae565b90505b60018111156111ea576f181899199a1a9b1b9c1cb0b131b232b360811b85600f16601081106111a6576111a6611369565b1a60f81b8282815181106111bc576111bc611369565b60200101906001600160f81b031916908160001a90535060049490941c936111e3816114e6565b9050611175565b5083156112395760405162461bcd60e51b815260206004820181905260248201527f537472696e67733a20686578206c656e67746820696e73756666696369656e746044820152606401610488565b9392505050565b60006020828403121561125257600080fd5b81356001600160e01b03198116811461123957600080fd5b60006020828403121561127c57600080fd5b5035919050565b6000806040838503121561129657600080fd5b8235915060208301356001600160a01b03811681146112b457600080fd5b809150509250929050565b8015158114610f4d57600080fd5b600080604083850312156112e057600080fd5b8235915060208301356112b4816112bf565b6020808252825182820181905260009190848201906040850190845b8181101561132a5783518352928401929184019160010161130e565b50909695505050505050565b60006020828403121561134857600080fd5b8151611239816112bf565b634e487b7160e01b600052604160045260246000fd5b634e487b7160e01b600052603260045260246000fd5b634e487b7160e01b600052601160045260246000fd5b6000600182016113a7576113a761137f565b5060010190565b808201808211156103d0576103d061137f565b6000602082840312156113d357600080fd5b5051919050565b6020808252600f908201526e151c985b9cd9995c8819985a5b1959608a1b604082015260600190565b60005b8381101561141e578181015183820152602001611406565b50506000910152565b7f416363657373436f6e74726f6c3a206163636f756e742000000000000000000081526000835161145f816017850160208801611403565b7001034b99036b4b9b9b4b733903937b6329607d1b6017918401918201528351611490816028840160208801611403565b01602801949350505050565b60208152600082518060208401526114bb816040850160208701611403565b601f01601f19169190910160400192915050565b80820281158282048414176103d0576103d061137f565b6000816114f5576114f561137f565b50600019019056fea2646970667358221220f9c332050eb39dedbc63c29b1f32cf00e09510c2b1ad57a4fbca465dfa0ec03064736f6c63430008120033","linkReferences":{}},"methodIdentifiers":{"DEFAULT_ADMIN_ROLE()":"a217fddf","DISPUTE_FEE()":"dc755e9d","DISPUTE_PERIOD()":"a5bbe22b","MERCHANT_ROLE()":"b3d35839","MODERATOR_ROLE()":"797669c9","createTransaction(uint256)":"da165ddb","disputeTransaction(uint256)":"49bf2caf","getMerchantTransactions()":"35833c34","getRoleAdmin(bytes32)":"248a9ca3","grantRole(bytes32,address)":"2f2ff15d","hasRole(bytes32,address)":"91d14854","i_merchant()":"78c84a7d","releasePayment(uint256)":"88685cd9","renounceRole(bytes32,address)":"36568abe","resolveDispute(uint256,bool)":"34b25ee2","revokeRole(bytes32,address)":"d547741f","s_transactionCount()":"e70f331a","s_transactions(uint256)":"ec3fe3de","s_usdcToken()":"4fdb1ace","supportsInterface(bytes4)":"01ffc9a7","withdrawFees(uint256)":"5e318e07"},"id":36}