{"abi":[{"type":"constructor","inputs":[{"name":"_usdcTokenAddress","type":"address","internalType":"address"},{"name":"_merchant","type":"address","internalType":"address"}],"stateMutability":"nonpayable"},{"type":"function","name":"DEFAULT_ADMIN_ROLE","inputs":[],"outputs":[{"name":"","type":"bytes32","internalType":"bytes32"}],"stateMutability":"view"},{"type":"function","name":"DISPUTE_FEE","inputs":[],"outputs":[{"name":"","type":"uint256","internalType":"uint256"}],"stateMutability":"view"},{"type":"function","name":"DISPUTE_PERIOD","inputs":[],"outputs":[{"name":"","type":"uint256","internalType":"uint256"}],"stateMutability":"view"},{"type":"function","name":"MERCHANT_FEE_PERCENTAGE","inputs":[],"outputs":[{"name":"","type":"uint256","internalType":"uint256"}],"stateMutability":"view"},{"type":"function","name":"MERCHANT_ROLE","inputs":[],"outputs":[{"name":"","type":"bytes32","internalType":"bytes32"}],"stateMutability":"view"},{"type":"function","name":"MODERATOR_ROLE","inputs":[],"outputs":[{"name":"","type":"bytes32","internalType":"bytes32"}],"stateMutability":"view"},{"type":"function","name":"REQUIRED_APPROVALS","inputs":[],"outputs":[{"name":"","type":"uint8","internalType":"uint8"}],"stateMutability":"view"},{"type":"function","name":"approveDispute","inputs":[{"name":"transactionId","type":"uint256","internalType":"uint256"}],"outputs":[],"stateMutability":"nonpayable"},{"type":"function","name":"createTransaction","inputs":[{"name":"amount","type":"uint256","internalType":"uint256"}],"outputs":[],"stateMutability":"nonpayable"},{"type":"function","name":"disputeTransaction","inputs":[{"name":"transactionId","type":"uint256","internalType":"uint256"}],"outputs":[],"stateMutability":"nonpayable"},{"type":"function","name":"getMerchantTransactions","inputs":[],"outputs":[{"name":"","type":"uint256[]","internalType":"uint256[]"}],"stateMutability":"view"},{"type":"function","name":"getRoleAdmin","inputs":[{"name":"role","type":"bytes32","internalType":"bytes32"}],"outputs":[{"name":"","type":"bytes32","internalType":"bytes32"}],"stateMutability":"view"},{"type":"function","name":"grantRole","inputs":[{"name":"role","type":"bytes32","internalType":"bytes32"},{"name":"account","type":"address","internalType":"address"}],"outputs":[],"stateMutability":"nonpayable"},{"type":"function","name":"hasRole","inputs":[{"name":"role","type":"bytes32","internalType":"bytes32"},{"name":"account","type":"address","internalType":"address"}],"outputs":[{"name":"","type":"bool","internalType":"bool"}],"stateMutability":"view"},{"type":"function","name":"i_merchant","inputs":[],"outputs":[{"name":"","type":"address","internalType":"address"}],"stateMutability":"view"},{"type":"function","name":"releasePayment","inputs":[{"name":"transactionId","type":"uint256","internalType":"uint256"}],"outputs":[],"stateMutability":"nonpayable"},{"type":"function","name":"renounceRole","inputs":[{"name":"role","type":"bytes32","internalType":"bytes32"},{"name":"account","type":"address","internalType":"address"}],"outputs":[],"stateMutability":"nonpayable"},{"type":"function","name":"revokeRole","inputs":[{"name":"role","type":"bytes32","internalType":"bytes32"},{"name":"account","type":"address","internalType":"address"}],"outputs":[],"stateMutability":"nonpayable"},{"type":"function","name":"s_transactionCount","inputs":[],"outputs":[{"name":"","type":"uint256","internalType":"uint256"}],"stateMutability":"view"},{"type":"function","name":"s_transactions","inputs":[{"name":"","type":"uint256","internalType":"uint256"}],"outputs":[{"name":"buyer","type":"address","internalType":"address"},{"name":"amount","type":"uint256","internalType":"uint256"},{"name":"timestamp","type":"uint256","internalType":"uint256"},{"name":"isDisputed","type":"bool","internalType":"bool"},{"name":"isResolved","type":"bool","internalType":"bool"},{"name":"approvalCount","type":"uint8","internalType":"uint8"},{"name":"buyerWinVotes","type":"uint8","internalType":"uint8"}],"stateMutability":"view"},{"type":"function","name":"s_usdcToken","inputs":[],"outputs":[{"name":"","type":"address","internalType":"contract IERC20"}],"stateMutability":"view"},{"type":"function","name":"supportsInterface","inputs":[{"name":"interfaceId","type":"bytes4","internalType":"bytes4"}],"outputs":[{"name":"","type":"bool","internalType":"bool"}],"stateMutability":"view"},{"type":"function","name":"voteOnDispute","inputs":[{"name":"transactionId","type":"uint256","internalType":"uint256"},{"name":"buyerShouldWin","type":"bool","internalType":"bool"}],"outputs":[],"stateMutability":"nonpayable"},{"type":"function","name":"withdrawFees","inputs":[{"name":"amount","type":"uint256","internalType":"uint256"}],"outputs":[],"stateMutability":"nonpayable"},{"type":"event","name":"DisputeApproved","inputs":[{"name":"transactionId","type":"uint256","indexed":true,"internalType":"uint256"},{"name":"moderator","type":"address","indexed":false,"internalType":"address"}],"anonymous":false},{"type":"event","name":"DisputeResolved","inputs":[{"name":"transactionId","type":"uint256","indexed":true,"internalType":"uint256"},{"name":"buyerWon","type":"bool","indexed":false,"internalType":"bool"}],"anonymous":false},{"type":"event","name":"DisputeVoteCast","inputs":[{"name":"transactionId","type":"uint256","indexed":true,"internalType":"uint256"},{"name":"moderator","type":"address","indexed":false,"internalType":"address"},{"name":"votedForBuyer","type":"bool","indexed":false,"internalType":"bool"}],"anonymous":false},{"type":"event","name":"FeesWithdrawn","inputs":[{"name":"admin","type":"address","indexed":true,"internalType":"address"},{"name":"amount","type":"uint256","indexed":false,"internalType":"uint256"}],"anonymous":false},{"type":"event","name":"PaymentReleased","inputs":[{"name":"transactionId","type":"uint256","indexed":true,"internalType":"uint256"},{"name":"amount","type":"uint256","indexed":false,"internalType":"uint256"},{"name":"fee","type":"uint256","indexed":false,"internalType":"uint256"}],"anonymous":false},{"type":"event","name":"RoleAdminChanged","inputs":[{"name":"role","type":"bytes32","indexed":true,"internalType":"bytes32"},{"name":"previousAdminRole","type":"bytes32","indexed":true,"internalType":"bytes32"},{"name":"newAdminRole","type":"bytes32","indexed":true,"internalType":"bytes32"}],"anonymous":false},{"type":"event","name":"RoleGranted","inputs":[{"name":"role","type":"bytes32","indexed":true,"internalType":"bytes32"},{"name":"account","type":"address","indexed":true,"internalType":"address"},{"name":"sender","type":"address","indexed":true,"internalType":"address"}],"anonymous":false},{"type":"event","name":"RoleRevoked","inputs":[{"name":"role","type":"bytes32","indexed":true,"internalType":"bytes32"},{"name":"account","type":"address","indexed":true,"internalType":"address"},{"name":"sender","type":"address","indexed":true,"internalType":"address"}],"anonymous":false},{"type":"event","name":"TransactionCreated","inputs":[{"name":"transactionId","type":"uint256","indexed":true,"internalType":"uint256"},{"name":"buyer","type":"address","indexed":false,"internalType":"address"},{"name":"amount","type":"uint256","indexed":false,"internalType":"uint256"}],"anonymous":false},{"type":"event","name":"TransactionDisputed","inputs":[{"name":"transactionId","type":"uint256","indexed":true,"internalType":"uint256"}],"anonymous":false}],"bytecode":{"object":"0x60a06040523480156200001157600080fd5b50604051620019be380380620019be833981016040819052620000349162000158565b600180546001600160a01b0319166001600160a01b03848116919091179091558116608052620000666000336200009a565b620000927f3c4a2d89ed8b4cf4347fec87df1c38410f8fc538bf9fd64c10f2717bc0feff36826200009a565b505062000190565b6000828152602081815260408083206001600160a01b038516845290915290205460ff1662000137576000828152602081815260408083206001600160a01b03851684529091529020805460ff19166001179055620000f63390565b6001600160a01b0316816001600160a01b0316837f2f8788117e7eff1d82e926ec794901d17c78024a50270940304540a733656f0d60405160405180910390a45b5050565b80516001600160a01b03811681146200015357600080fd5b919050565b600080604083850312156200016c57600080fd5b62000177836200013b565b915062000187602084016200013b565b90509250929050565b60805161180b620001b3600039600081816102760152610bc0015261180b6000f3fe608060405234801561001057600080fd5b50600436106101585760003560e01c806382820635116100c3578063b3d358391161007c578063b3d3583914610312578063d547741f14610339578063da165ddb1461034c578063dc755e9d1461035f578063e70f331a14610369578063ec3fe3de1461037257600080fd5b806382820635146102bf57806388685cd9146102c757806391d14854146102da578063a217fddf146102ed578063a4f5df12146102f5578063a5bbe22b1461030857600080fd5b80634fdb1ace116101155780634fdb1ace1461020657806356d400a114610231578063599c5533146102445780635e318e071461025e57806378c84a7d14610271578063797669c91461029857600080fd5b806301ffc9a71461015d578063248a9ca3146101855780632f2ff15d146101b657806335833c34146101cb57806336568abe146101e057806349bf2caf146101f3575b600080fd5b61017061016b366004611456565b610419565b60405190151581526020015b60405180910390f35b6101a8610193366004611480565b60009081526020819052604090206001015490565b60405190815260200161017c565b6101c96101c4366004611499565b610450565b005b6101d361047a565b60405161017c91906114d5565b6101c96101ee366004611499565b610508565b6101c9610201366004611480565b61058b565b600154610219906001600160a01b031681565b6040516001600160a01b03909116815260200161017c565b6101c961023f366004611480565b610793565b61024c600381565b60405160ff909116815260200161017c565b6101c961026c366004611480565b6108fd565b6102197f000000000000000000000000000000000000000000000000000000000000000081565b6101a87f71f3d55856e4058ed06ee057d79ada615f65cdf5f9ee88181b914225088f834f81565b6101a8606481565b6101c96102d5366004611480565b610a84565b6101706102e8366004611499565b610c9d565b6101a8600081565b6101c9610303366004611527565b610cc6565b6101a86201518081565b6101a87f3c4a2d89ed8b4cf4347fec87df1c38410f8fc538bf9fd64c10f2717bc0feff3681565b6101c9610347366004611499565b610e51565b6101c961035a366004611480565b610e76565b6101a8620f424081565b6101a860035481565b6103d2610380366004611480565b600260208190526000918252604090912080546001820154928201546003909201546001600160a01b0390911692919060ff808216916101008104821691620100008204811691630100000090041687565b604080516001600160a01b03909816885260208801969096529486019390935290151560608501521515608084015260ff90811660a08401521660c082015260e00161017c565b60006001600160e01b03198216637965db0b60e01b148061044a57506301ffc9a760e01b6001600160e01b03198316145b92915050565b60008281526020819052604090206001015461046b81610fa5565b6104758383610fb2565b505050565b6060600060035467ffffffffffffffff8111156104995761049961154c565b6040519080825280602002602001820160405280156104c2578160200160208202803683370190505b50905060005b60035481101561050257808282815181106104e5576104e5611562565b6020908102919091010152806104fa8161158e565b9150506104c8565b50919050565b6001600160a01b038116331461057d5760405162461bcd60e51b815260206004820152602f60248201527f416363657373436f6e74726f6c3a2063616e206f6e6c792072656e6f756e636560448201526e103937b632b9903337b91039b2b63360891b60648201526084015b60405180910390fd5b6105878282611036565b5050565b600081815260026020526040902080546001600160a01b031633146105eb5760405162461bcd60e51b81526020600482015260166024820152754f6e6c792062757965722063616e206469737075746560501b6044820152606401610574565b6201518081600201546105fe91906115a7565b4211156106445760405162461bcd60e51b8152602060048201526014602482015273111a5cdc1d5d19481c195c9a5bd908195b99195960621b6044820152606401610574565b600381015460ff161561068c5760405162461bcd60e51b815260206004820152601060248201526f105b1c9958591e48191a5cdc1d5d195960821b6044820152606401610574565b6001546040516323b872dd60e01b8152336004820152306024820152620f424060448201526001600160a01b03909116906323b872dd906064016020604051808303816000875af11580156106e5573d6000803e3d6000fd5b505050506040513d601f19601f8201168201806040525081019061070991906115ba565b6107555760405162461bcd60e51b815260206004820152601b60248201527f4469737075746520666565207472616e73666572206661696c656400000000006044820152606401610574565b60038101805460ff1916600117905560405182907f61e60550bebc2b32282d4baacb9094d9c194d45912cea3e6b10440d24bf5d0fa90600090a25050565b7f71f3d55856e4058ed06ee057d79ada615f65cdf5f9ee88181b914225088f834f6107bd81610fa5565b6000828152600260205260409020600381015460ff166107ef5760405162461bcd60e51b8152600401610574906115d7565b6003810154610100900460ff16156108195760405162461bcd60e51b81526004016105749061160e565b33600090815260048201602052604090205460ff161561086e5760405162461bcd60e51b815260206004820152601060248201526f105b1c9958591e48185c1c1c9bdd995960821b6044820152606401610574565b3360009081526004820160205260409020805460ff1916600117905560038101805462010000900460ff169060026108a583611645565b825460ff9182166101009390930a92830291909202199091161790555060405133815283907fe877db1904a9544a057fc69e5d3d60105163902217060d44c3d12f7fd1c8fab0906020015b60405180910390a2505050565b600061090881610fa5565b6001546040516370a0823160e01b81523060048201526001600160a01b03909116906370a0823190602401602060405180830381865afa158015610950573d6000803e3d6000fd5b505050506040513d601f19601f820116820180604052508101906109749190611664565b8211156109ba5760405162461bcd60e51b8152602060048201526014602482015273496e73756666696369656e742062616c616e636560601b6044820152606401610574565b60015460405163a9059cbb60e01b8152336004820152602481018490526001600160a01b039091169063a9059cbb906044016020604051808303816000875af1158015610a0b573d6000803e3d6000fd5b505050506040513d601f19601f82011682018060405250810190610a2f91906115ba565b610a4b5760405162461bcd60e51b81526004016105749061167d565b60405182815233907fc0819c13be868895eb93e40eaceb96de976442fa1d404e5c55f14bb65a8c489a9060200160405180910390a25050565b7f3c4a2d89ed8b4cf4347fec87df1c38410f8fc538bf9fd64c10f2717bc0feff36610aae81610fa5565b6000828152600260205260409020600381015460ff1615610b115760405162461bcd60e51b815260206004820152601760248201527f5472616e73616374696f6e2069732064697370757465640000000000000000006044820152606401610574565b620151808160020154610b2491906115a7565b4211610b725760405162461bcd60e51b815260206004820152601860248201527f4469737075746520706572696f64206e6f7420656e64656400000000000000006044820152606401610574565b600061271060648360010154610b8891906116a6565b610b9291906116bd565b90506000818360010154610ba691906116df565b60015460405163a9059cbb60e01b81526001600160a01b037f0000000000000000000000000000000000000000000000000000000000000000811660048301526024820184905292935091169063a9059cbb906044016020604051808303816000875af1158015610c1b573d6000803e3d6000fd5b505050506040513d601f19601f82011682018060405250810190610c3f91906115ba565b610c5b5760405162461bcd60e51b81526004016105749061167d565b604080518281526020810184905286917f3c70b1e8034b5738ec77fbfdaa4d28906a0b3160018d67a2dc7b534e53e33fe0910160405180910390a25050505050565b6000918252602082815260408084206001600160a01b0393909316845291905290205460ff1690565b7f71f3d55856e4058ed06ee057d79ada615f65cdf5f9ee88181b914225088f834f610cf081610fa5565b6000838152600260205260409020600381015460ff16610d225760405162461bcd60e51b8152600401610574906115d7565b6003810154610100900460ff1615610d4c5760405162461bcd60e51b81526004016105749061160e565b33600090815260048201602052604090205460ff1615610d9e5760405162461bcd60e51b815260206004820152600d60248201526c105b1c9958591e481d9bdd1959609a1b6044820152606401610574565b3360009081526004820160205260409020805460ff1916600117905560038101805462010000900460ff16906002610dd583611645565b825460ff9182166101009390930a92830291909202199091161790555060408051338152841515602082015285917f206a9e4c4c1bed069ea21a5bb45c0327cee3956760a70d00f6a75dd32062a288910160405180910390a260038181015462010000900460ff1610610e4b57610e4b8461109b565b50505050565b600082815260208190526040902060010154610e6c81610fa5565b6104758383611036565b6001546040516323b872dd60e01b8152336004820152306024820152604481018390526001600160a01b03909116906323b872dd906064016020604051808303816000875af1158015610ecd573d6000803e3d6000fd5b505050506040513d601f19601f82011682018060405250810190610ef191906115ba565b610f0d5760405162461bcd60e51b81526004016105749061167d565b6003805460008181526002602081815260409283902080546001600160a01b031916339081178255600182018890554293820193909355948501805462ffffff191690558251918252810185905291929183917ffd27d176b6ebb21e0182c0e43df5818e0d632867e1eb47c383c58d221205fce3910160405180910390a260038054906000610f9b8361158e565b9190505550505050565b610faf813361124f565b50565b610fbc8282610c9d565b610587576000828152602081815260408083206001600160a01b03851684529091529020805460ff19166001179055610ff23390565b6001600160a01b0316816001600160a01b0316837f2f8788117e7eff1d82e926ec794901d17c78024a50270940304540a733656f0d60405160405180910390a45050565b6110408282610c9d565b15610587576000828152602081815260408083206001600160a01b0385168085529252808320805460ff1916905551339285917ff6391f5c32d9c69d2a47ea670b442974b53935d1edc7fd64eb21e047a839171b9190a45050565b6000818152600260205260409020600381015460ff166110cd5760405162461bcd60e51b8152600401610574906115d7565b6003810154610100900460ff16156110f75760405162461bcd60e51b81526004016105749061160e565b60038181015462010000900460ff1610156111475760405162461bcd60e51b815260206004820152601060248201526f4e6f7420656e6f75676820766f74657360801b6044820152606401610574565b60038101805461ff0019166101001790556001805482548284015460405163a9059cbb60e01b81526001600160a01b039283166004820152602481019190915291169063a9059cbb906044016020604051808303816000875af11580156111b2573d6000803e3d6000fd5b505050506040513d601f19601f820116820180604052508101906111d691906115ba565b61121b5760405162461bcd60e51b81526020600482015260166024820152751499599d5b99081d1bc8189d5e595c8819985a5b195960521b6044820152606401610574565b827f5a87909bff68caaaaf0b3fd9c74eeccc928832f879315e5c6fb7a73612f26c0c826040516108f0911515815260200190565b6112598282610c9d565b61058757611271816001600160a01b031660146112b3565b61127c8360206112b3565b60405160200161128d929190611716565b60408051601f198184030181529082905262461bcd60e51b82526105749160040161178b565b606060006112c28360026116a6565b6112cd9060026115a7565b67ffffffffffffffff8111156112e5576112e561154c565b6040519080825280601f01601f19166020018201604052801561130f576020820181803683370190505b509050600360fc1b8160008151811061132a5761132a611562565b60200101906001600160f81b031916908160001a905350600f60fb1b8160018151811061135957611359611562565b60200101906001600160f81b031916908160001a905350600061137d8460026116a6565b6113889060016115a7565b90505b6001811115611400576f181899199a1a9b1b9c1cb0b131b232b360811b85600f16601081106113bc576113bc611562565b1a60f81b8282815181106113d2576113d2611562565b60200101906001600160f81b031916908160001a90535060049490941c936113f9816117be565b905061138b565b50831561144f5760405162461bcd60e51b815260206004820181905260248201527f537472696e67733a20686578206c656e67746820696e73756666696369656e746044820152606401610574565b9392505050565b60006020828403121561146857600080fd5b81356001600160e01b03198116811461144f57600080fd5b60006020828403121561149257600080fd5b5035919050565b600080604083850312156114ac57600080fd5b8235915060208301356001600160a01b03811681146114ca57600080fd5b809150509250929050565b6020808252825182820181905260009190848201906040850190845b8181101561150d578351835292840192918401916001016114f1565b50909695505050505050565b8015158114610faf57600080fd5b6000806040838503121561153a57600080fd5b8235915060208301356114ca81611519565b634e487b7160e01b600052604160045260246000fd5b634e487b7160e01b600052603260045260246000fd5b634e487b7160e01b600052601160045260246000fd5b6000600182016115a0576115a0611578565b5060010190565b8082018082111561044a5761044a611578565b6000602082840312156115cc57600080fd5b815161144f81611519565b60208082526018908201527f5472616e73616374696f6e206e6f742064697370757465640000000000000000604082015260600190565b60208082526018908201527f4469737075746520616c7265616479207265736f6c7665640000000000000000604082015260600190565b600060ff821660ff810361165b5761165b611578565b60010192915050565b60006020828403121561167657600080fd5b5051919050565b6020808252600f908201526e151c985b9cd9995c8819985a5b1959608a1b604082015260600190565b808202811582820484141761044a5761044a611578565b6000826116da57634e487b7160e01b600052601260045260246000fd5b500490565b8181038181111561044a5761044a611578565b60005b8381101561170d5781810151838201526020016116f5565b50506000910152565b7f416363657373436f6e74726f6c3a206163636f756e742000000000000000000081526000835161174e8160178501602088016116f2565b7001034b99036b4b9b9b4b733903937b6329607d1b601791840191820152835161177f8160288401602088016116f2565b01602801949350505050565b60208152600082518060208401526117aa8160408501602087016116f2565b601f01601f19169190910160400192915050565b6000816117cd576117cd611578565b50600019019056fea264697066735822122023e5af755949e1eeb78d07940cb2e2b5161914a1b02da6a4e9a903b708f8c5dc64736f6c63430008120033","linkReferences":{}},"methodIdentifiers":{"DEFAULT_ADMIN_ROLE()":"a217fddf","DISPUTE_FEE()":"dc755e9d","DISPUTE_PERIOD()":"a5bbe22b","MERCHANT_FEE_PERCENTAGE()":"82820635","MERCHANT_ROLE()":"b3d35839","MODERATOR_ROLE()":"797669c9","REQUIRED_APPROVALS()":"599c5533","approveDispute(uint256)":"56d400a1","createTransaction(uint256)":"da165ddb","disputeTransaction(uint256)":"49bf2caf","getMerchantTransactions()":"35833c34","getRoleAdmin(bytes32)":"248a9ca3","grantRole(bytes32,address)":"2f2ff15d","hasRole(bytes32,address)":"91d14854","i_merchant()":"78c84a7d","releasePayment(uint256)":"88685cd9","renounceRole(bytes32,address)":"36568abe","revokeRole(bytes32,address)":"d547741f","s_transactionCount()":"e70f331a","s_transactions(uint256)":"ec3fe3de","s_usdcToken()":"4fdb1ace","supportsInterface(bytes4)":"01ffc9a7","voteOnDispute(uint256,bool)":"a4f5df12","withdrawFees(uint256)":"5e318e07"},"id":36}