{"abi":[{"type":"constructor","inputs":[{"name":"_usdcTokenAddress","type":"address","internalType":"address"},{"name":"_moderators","type":"address[]","internalType":"address[]"},{"name":"_merchant","type":"address","internalType":"address"}],"stateMutability":"nonpayable"},{"type":"function","name":"ADMIN_ROLE","inputs":[],"outputs":[{"name":"","type":"bytes32","internalType":"bytes32"}],"stateMutability":"view"},{"type":"function","name":"DEFAULT_ADMIN_ROLE","inputs":[],"outputs":[{"name":"","type":"bytes32","internalType":"bytes32"}],"stateMutability":"view"},{"type":"function","name":"DISPUTE_FEE","inputs":[],"outputs":[{"name":"","type":"uint256","internalType":"uint256"}],"stateMutability":"view"},{"type":"function","name":"DISPUTE_PERIOD","inputs":[],"outputs":[{"name":"","type":"uint256","internalType":"uint256"}],"stateMutability":"view"},{"type":"function","name":"MERCHANT_ROLE","inputs":[],"outputs":[{"name":"","type":"bytes32","internalType":"bytes32"}],"stateMutability":"view"},{"type":"function","name":"MODERATOR_ROLE","inputs":[],"outputs":[{"name":"","type":"bytes32","internalType":"bytes32"}],"stateMutability":"view"},{"type":"function","name":"createTransaction","inputs":[{"name":"amount","type":"uint256","internalType":"uint256"}],"outputs":[],"stateMutability":"nonpayable"},{"type":"function","name":"disputeTransaction","inputs":[{"name":"transactionId","type":"uint256","internalType":"uint256"}],"outputs":[],"stateMutability":"nonpayable"},{"type":"function","name":"getMerchantTransactions","inputs":[],"outputs":[{"name":"","type":"uint256[]","internalType":"uint256[]"}],"stateMutability":"view"},{"type":"function","name":"getRoleAdmin","inputs":[{"name":"role","type":"bytes32","internalType":"bytes32"}],"outputs":[{"name":"","type":"bytes32","internalType":"bytes32"}],"stateMutability":"view"},{"type":"function","name":"grantRole","inputs":[{"name":"role","type":"bytes32","internalType":"bytes32"},{"name":"account","type":"address","internalType":"address"}],"outputs":[],"stateMutability":"nonpayable"},{"type":"function","name":"hasRole","inputs":[{"name":"role","type":"bytes32","internalType":"bytes32"},{"name":"account","type":"address","internalType":"address"}],"outputs":[{"name":"","type":"bool","internalType":"bool"}],"stateMutability":"view"},{"type":"function","name":"i_merchant","inputs":[],"outputs":[{"name":"","type":"address","internalType":"address"}],"stateMutability":"view"},{"type":"function","name":"releasePayment","inputs":[{"name":"transactionId","type":"uint256","internalType":"uint256"}],"outputs":[],"stateMutability":"nonpayable"},{"type":"function","name":"renounceRole","inputs":[{"name":"role","type":"bytes32","internalType":"bytes32"},{"name":"account","type":"address","internalType":"address"}],"outputs":[],"stateMutability":"nonpayable"},{"type":"function","name":"resolveDispute","inputs":[{"name":"transactionId","type":"uint256","internalType":"uint256"},{"name":"buyerWon","type":"bool","internalType":"bool"}],"outputs":[],"stateMutability":"nonpayable"},{"type":"function","name":"revokeRole","inputs":[{"name":"role","type":"bytes32","internalType":"bytes32"},{"name":"account","type":"address","internalType":"address"}],"outputs":[],"stateMutability":"nonpayable"},{"type":"function","name":"s_transactionCount","inputs":[],"outputs":[{"name":"","type":"uint256","internalType":"uint256"}],"stateMutability":"view"},{"type":"function","name":"s_transactions","inputs":[{"name":"","type":"uint256","internalType":"uint256"}],"outputs":[{"name":"buyer","type":"address","internalType":"address"},{"name":"amount","type":"uint256","internalType":"uint256"},{"name":"timestamp","type":"uint256","internalType":"uint256"},{"name":"isDisputed","type":"bool","internalType":"bool"},{"name":"isResolved","type":"bool","internalType":"bool"}],"stateMutability":"view"},{"type":"function","name":"s_usdcToken","inputs":[],"outputs":[{"name":"","type":"address","internalType":"contract IERC20"}],"stateMutability":"view"},{"type":"function","name":"supportsInterface","inputs":[{"name":"interfaceId","type":"bytes4","internalType":"bytes4"}],"outputs":[{"name":"","type":"bool","internalType":"bool"}],"stateMutability":"view"},{"type":"function","name":"withdrawFees","inputs":[{"name":"amount","type":"uint256","internalType":"uint256"}],"outputs":[],"stateMutability":"nonpayable"},{"type":"event","name":"DisputeResolved","inputs":[{"name":"transactionId","type":"uint256","indexed":true,"internalType":"uint256"},{"name":"buyerWon","type":"bool","indexed":false,"internalType":"bool"}],"anonymous":false},{"type":"event","name":"FeesWithdrawn","inputs":[{"name":"admin","type":"address","indexed":true,"internalType":"address"},{"name":"amount","type":"uint256","indexed":false,"internalType":"uint256"}],"anonymous":false},{"type":"event","name":"PaymentReleased","inputs":[{"name":"transactionId","type":"uint256","indexed":true,"internalType":"uint256"},{"name":"amount","type":"uint256","indexed":false,"internalType":"uint256"}],"anonymous":false},{"type":"event","name":"RoleAdminChanged","inputs":[{"name":"role","type":"bytes32","indexed":true,"internalType":"bytes32"},{"name":"previousAdminRole","type":"bytes32","indexed":true,"internalType":"bytes32"},{"name":"newAdminRole","type":"bytes32","indexed":true,"internalType":"bytes32"}],"anonymous":false},{"type":"event","name":"RoleGranted","inputs":[{"name":"role","type":"bytes32","indexed":true,"internalType":"bytes32"},{"name":"account","type":"address","indexed":true,"internalType":"address"},{"name":"sender","type":"address","indexed":true,"internalType":"address"}],"anonymous":false},{"type":"event","name":"RoleRevoked","inputs":[{"name":"role","type":"bytes32","indexed":true,"internalType":"bytes32"},{"name":"account","type":"address","indexed":true,"internalType":"address"},{"name":"sender","type":"address","indexed":true,"internalType":"address"}],"anonymous":false},{"type":"event","name":"TransactionCreated","inputs":[{"name":"transactionId","type":"uint256","indexed":true,"internalType":"uint256"},{"name":"buyer","type":"address","indexed":false,"internalType":"address"},{"name":"amount","type":"uint256","indexed":false,"internalType":"uint256"}],"anonymous":false},{"type":"event","name":"TransactionDisputed","inputs":[{"name":"transactionId","type":"uint256","indexed":true,"internalType":"uint256"}],"anonymous":false}],"bytecode":{"object":"0x60a06040523480156200001157600080fd5b50604051620018f3380380620018f383398101604081905262000034916200020c565b600180546001600160a01b0319166001600160a01b038581169190911790915581166080526200006660003362000138565b620000927fa49807205ce4d355092ef5a8a18f56e8913cf4a201fbe287825b095693c217753362000138565b620000be7f3c4a2d89ed8b4cf4347fec87df1c38410f8fc538bf9fd64c10f2717bc0feff368262000138565b60005b82518110156200012e57620001197f71f3d55856e4058ed06ee057d79ada615f65cdf5f9ee88181b914225088f834f84838151811062000105576200010562000307565b60200260200101516200013860201b60201c565b8062000125816200031d565b915050620000c1565b5050505062000345565b6000828152602081815260408083206001600160a01b038516845290915290205460ff16620001d5576000828152602081815260408083206001600160a01b03851684529091529020805460ff19166001179055620001943390565b6001600160a01b0316816001600160a01b0316837f2f8788117e7eff1d82e926ec794901d17c78024a50270940304540a733656f0d60405160405180910390a45b5050565b80516001600160a01b0381168114620001f157600080fd5b919050565b634e487b7160e01b600052604160045260246000fd5b6000806000606084860312156200022257600080fd5b6200022d84620001d9565b602085810151919450906001600160401b03808211156200024d57600080fd5b818701915087601f8301126200026257600080fd5b815181811115620002775762000277620001f6565b8060051b604051601f19603f830116810181811085821117156200029f576200029f620001f6565b60405291825284820192508381018501918a831115620002be57600080fd5b938501935b82851015620002e757620002d785620001d9565b84529385019392850192620002c3565b809750505050505050620002fe60408501620001d9565b90509250925092565b634e487b7160e01b600052603260045260246000fd5b6000600182016200033e57634e487b7160e01b600052601160045260246000fd5b5060010190565b6080516115846200036f6000396000818161026d0152818161061b0152610ced01526115846000f3fe608060405234801561001057600080fd5b50600436106101425760003560e01c8063797669c9116100b8578063b3d358391161007c578063b3d35839146102ee578063d547741f14610315578063da165ddb14610328578063dc755e9d1461033b578063e70f331a14610345578063ec3fe3de1461034e57600080fd5b8063797669c91461028f57806388685cd9146102b657806391d14854146102c9578063a217fddf146102dc578063a5bbe22b146102e457600080fd5b806336568abe1161010a57806336568abe146101dd57806349bf2caf146101f05780634fdb1ace146102035780635e318e071461022e57806375b238fc1461024157806378c84a7d1461026857600080fd5b806301ffc9a714610147578063248a9ca31461016f5780632f2ff15d146101a057806334b25ee2146101b557806335833c34146101c8575b600080fd5b61015a610155366004611291565b6103d1565b60405190151581526020015b60405180910390f35b61019261017d3660046112bb565b60009081526020819052604090206001015490565b604051908152602001610166565b6101b36101ae3660046112d4565b610408565b005b6101b36101c336600461131e565b610432565b6101d0610726565b6040516101669190611343565b6101b36101eb3660046112d4565b6107b4565b6101b36101fe3660046112bb565b610832565b600154610216906001600160a01b031681565b6040516001600160a01b039091168152602001610166565b6101b361023c3660046112bb565b610a3a565b6101927fa49807205ce4d355092ef5a8a18f56e8913cf4a201fbe287825b095693c2177581565b6102167f000000000000000000000000000000000000000000000000000000000000000081565b6101927f71f3d55856e4058ed06ee057d79ada615f65cdf5f9ee88181b914225088f834f81565b6101b36102c43660046112bb565b610be0565b61015a6102d73660046112d4565b610dc9565b610192600081565b6101926201518081565b6101927f3c4a2d89ed8b4cf4347fec87df1c38410f8fc538bf9fd64c10f2717bc0feff3681565b6101b36103233660046112d4565b610df2565b6101b36103363660046112bb565b610e17565b6101926298968081565b61019260035481565b61039b61035c3660046112bb565b600260208190526000918252604090912080546001820154928201546003909201546001600160a01b0390911692919060ff8082169161010090041685565b604080516001600160a01b039096168652602086019490945292840191909152151560608301521515608082015260a001610166565b60006001600160e01b03198216637965db0b60e01b148061040257506301ffc9a760e01b6001600160e01b03198316145b92915050565b60008281526020819052604090206001015461042381610f94565b61042d8383610fa1565b505050565b7f71f3d55856e4058ed06ee057d79ada615f65cdf5f9ee88181b914225088f834f61045c81610f94565b6000838152600260205260409020600381015460ff166104c35760405162461bcd60e51b815260206004820152601860248201527f5472616e73616374696f6e206e6f74206469737075746564000000000000000060448201526064015b60405180910390fd5b6003810154610100900460ff161561051d5760405162461bcd60e51b815260206004820152601860248201527f4469737075746520616c7265616479207265736f6c766564000000000000000060448201526064016104ba565b60038101805461ff00191661010017905582156105fc576001805482549183015460405163a9059cbb60e01b81526001600160a01b039384166004820152602481019190915291169063a9059cbb906044016020604051808303816000875af115801561058e573d6000803e3d6000fd5b505050506040513d601f19601f820116820180604052508101906105b29190611387565b6105f75760405162461bcd60e51b81526020600482015260166024820152751499599d5b99081d1bc8189d5e595c8819985a5b195960521b60448201526064016104ba565b6106e4565b600180549082015460405163a9059cbb60e01b81526001600160a01b037f000000000000000000000000000000000000000000000000000000000000000081166004830152602482019290925291169063a9059cbb906044016020604051808303816000875af1158015610674573d6000803e3d6000fd5b505050506040513d601f19601f820116820180604052508101906106989190611387565b6106e45760405162461bcd60e51b815260206004820152601b60248201527f5472616e7366657220746f206d65726368616e74206661696c6564000000000060448201526064016104ba565b837f5a87909bff68caaaaf0b3fd9c74eeccc928832f879315e5c6fb7a73612f26c0c84604051610718911515815260200190565b60405180910390a250505050565b6060600060035467ffffffffffffffff811115610745576107456113a4565b60405190808252806020026020018201604052801561076e578160200160208202803683370190505b50905060005b6003548110156107ae5780828281518110610791576107916113ba565b6020908102919091010152806107a6816113e6565b915050610774565b50919050565b6001600160a01b03811633146108245760405162461bcd60e51b815260206004820152602f60248201527f416363657373436f6e74726f6c3a2063616e206f6e6c792072656e6f756e636560448201526e103937b632b9903337b91039b2b63360891b60648201526084016104ba565b61082e8282611025565b5050565b600081815260026020526040902080546001600160a01b031633146108925760405162461bcd60e51b81526020600482015260166024820152754f6e6c792062757965722063616e206469737075746560501b60448201526064016104ba565b6201518081600201546108a591906113ff565b4211156108eb5760405162461bcd60e51b8152602060048201526014602482015273111a5cdc1d5d19481c195c9a5bd908195b99195960621b60448201526064016104ba565b600381015460ff16156109335760405162461bcd60e51b815260206004820152601060248201526f105b1c9958591e48191a5cdc1d5d195960821b60448201526064016104ba565b6001546040516323b872dd60e01b81523360048201523060248201526298968060448201526001600160a01b03909116906323b872dd906064016020604051808303816000875af115801561098c573d6000803e3d6000fd5b505050506040513d601f19601f820116820180604052508101906109b09190611387565b6109fc5760405162461bcd60e51b815260206004820152601b60248201527f4469737075746520666565207472616e73666572206661696c6564000000000060448201526064016104ba565b60038101805460ff1916600117905560405182907f61e60550bebc2b32282d4baacb9094d9c194d45912cea3e6b10440d24bf5d0fa90600090a25050565b7fa49807205ce4d355092ef5a8a18f56e8913cf4a201fbe287825b095693c21775610a6481610f94565b6001546040516370a0823160e01b81523060048201526001600160a01b03909116906370a0823190602401602060405180830381865afa158015610aac573d6000803e3d6000fd5b505050506040513d601f19601f82011682018060405250810190610ad09190611412565b821115610b165760405162461bcd60e51b8152602060048201526014602482015273496e73756666696369656e742062616c616e636560601b60448201526064016104ba565b60015460405163a9059cbb60e01b8152336004820152602481018490526001600160a01b039091169063a9059cbb906044016020604051808303816000875af1158015610b67573d6000803e3d6000fd5b505050506040513d601f19601f82011682018060405250810190610b8b9190611387565b610ba75760405162461bcd60e51b81526004016104ba9061142b565b60405182815233907fc0819c13be868895eb93e40eaceb96de976442fa1d404e5c55f14bb65a8c489a9060200160405180910390a25050565b7f3c4a2d89ed8b4cf4347fec87df1c38410f8fc538bf9fd64c10f2717bc0feff36610c0a81610f94565b6000828152600260205260409020600381015460ff1615610c6d5760405162461bcd60e51b815260206004820152601760248201527f5472616e73616374696f6e20697320646973707574656400000000000000000060448201526064016104ba565b620151808160020154610c8091906113ff565b4211610cce5760405162461bcd60e51b815260206004820152601860248201527f4469737075746520706572696f64206e6f7420656e646564000000000000000060448201526064016104ba565b600180549082015460405163a9059cbb60e01b81526001600160a01b037f000000000000000000000000000000000000000000000000000000000000000081166004830152602482019290925291169063a9059cbb906044016020604051808303816000875af1158015610d46573d6000803e3d6000fd5b505050506040513d601f19601f82011682018060405250810190610d6a9190611387565b610d865760405162461bcd60e51b81526004016104ba9061142b565b827fc8ef479acdbffd729d96117b951d1c3ee85d98ef42699aec806bc4f0b522461d8260010154604051610dbc91815260200190565b60405180910390a2505050565b6000918252602082815260408084206001600160a01b0393909316845291905290205460ff1690565b600082815260208190526040902060010154610e0d81610f94565b61042d8383611025565b6001546040516323b872dd60e01b8152336004820152306024820152604481018390526001600160a01b03909116906323b872dd906064016020604051808303816000875af1158015610e6e573d6000803e3d6000fd5b505050506040513d601f19601f82011682018060405250810190610e929190611387565b610eae5760405162461bcd60e51b81526004016104ba9061142b565b600380546040805160a0810182523380825260208083018781524284860190815260006060860181815260808701828152898352600280875292899020975188546001600160a01b0319166001600160a01b039091161788559351600188015591519086015551939096018054965161ffff1990971693151561ff0019169390931761010096151596909602959095179091558151908152928301849052909182917ffd27d176b6ebb21e0182c0e43df5818e0d632867e1eb47c383c58d221205fce3910160405180910390a260038054906000610f8b836113e6565b91905055505050565b610f9e813361108a565b50565b610fab8282610dc9565b61082e576000828152602081815260408083206001600160a01b03851684529091529020805460ff19166001179055610fe13390565b6001600160a01b0316816001600160a01b0316837f2f8788117e7eff1d82e926ec794901d17c78024a50270940304540a733656f0d60405160405180910390a45050565b61102f8282610dc9565b1561082e576000828152602081815260408083206001600160a01b0385168085529252808320805460ff1916905551339285917ff6391f5c32d9c69d2a47ea670b442974b53935d1edc7fd64eb21e047a839171b9190a45050565b6110948282610dc9565b61082e576110ac816001600160a01b031660146110ee565b6110b78360206110ee565b6040516020016110c8929190611478565b60408051601f198184030181529082905262461bcd60e51b82526104ba916004016114ed565b606060006110fd836002611520565b6111089060026113ff565b67ffffffffffffffff811115611120576111206113a4565b6040519080825280601f01601f19166020018201604052801561114a576020820181803683370190505b509050600360fc1b81600081518110611165576111656113ba565b60200101906001600160f81b031916908160001a905350600f60fb1b81600181518110611194576111946113ba565b60200101906001600160f81b031916908160001a90535060006111b8846002611520565b6111c39060016113ff565b90505b600181111561123b576f181899199a1a9b1b9c1cb0b131b232b360811b85600f16601081106111f7576111f76113ba565b1a60f81b82828151811061120d5761120d6113ba565b60200101906001600160f81b031916908160001a90535060049490941c9361123481611537565b90506111c6565b50831561128a5760405162461bcd60e51b815260206004820181905260248201527f537472696e67733a20686578206c656e67746820696e73756666696369656e7460448201526064016104ba565b9392505050565b6000602082840312156112a357600080fd5b81356001600160e01b03198116811461128a57600080fd5b6000602082840312156112cd57600080fd5b5035919050565b600080604083850312156112e757600080fd5b8235915060208301356001600160a01b038116811461130557600080fd5b809150509250929050565b8015158114610f9e57600080fd5b6000806040838503121561133157600080fd5b82359150602083013561130581611310565b6020808252825182820181905260009190848201906040850190845b8181101561137b5783518352928401929184019160010161135f565b50909695505050505050565b60006020828403121561139957600080fd5b815161128a81611310565b634e487b7160e01b600052604160045260246000fd5b634e487b7160e01b600052603260045260246000fd5b634e487b7160e01b600052601160045260246000fd5b6000600182016113f8576113f86113d0565b5060010190565b80820180821115610402576104026113d0565b60006020828403121561142457600080fd5b5051919050565b6020808252600f908201526e151c985b9cd9995c8819985a5b1959608a1b604082015260600190565b60005b8381101561146f578181015183820152602001611457565b50506000910152565b7f416363657373436f6e74726f6c3a206163636f756e74200000000000000000008152600083516114b0816017850160208801611454565b7001034b99036b4b9b9b4b733903937b6329607d1b60179184019182015283516114e1816028840160208801611454565b01602801949350505050565b602081526000825180602084015261150c816040850160208701611454565b601f01601f19169190910160400192915050565b8082028115828204841417610402576104026113d0565b600081611546576115466113d0565b50600019019056fea26469706673582212205c3dc82449464805c69145eb9eae770464cbe7cbebc2b6aecf47f43b4facd98c64736f6c63430008120033","linkReferences":{}},"methodIdentifiers":{"ADMIN_ROLE()":"75b238fc","DEFAULT_ADMIN_ROLE()":"a217fddf","DISPUTE_FEE()":"dc755e9d","DISPUTE_PERIOD()":"a5bbe22b","MERCHANT_ROLE()":"b3d35839","MODERATOR_ROLE()":"797669c9","createTransaction(uint256)":"da165ddb","disputeTransaction(uint256)":"49bf2caf","getMerchantTransactions()":"35833c34","getRoleAdmin(bytes32)":"248a9ca3","grantRole(bytes32,address)":"2f2ff15d","hasRole(bytes32,address)":"91d14854","i_merchant()":"78c84a7d","releasePayment(uint256)":"88685cd9","renounceRole(bytes32,address)":"36568abe","resolveDispute(uint256,bool)":"34b25ee2","revokeRole(bytes32,address)":"d547741f","s_transactionCount()":"e70f331a","s_transactions(uint256)":"ec3fe3de","s_usdcToken()":"4fdb1ace","supportsInterface(bytes4)":"01ffc9a7","withdrawFees(uint256)":"5e318e07"},"id":36}