{"abi":[{"type":"constructor","inputs":[{"name":"_usdcTokenAddress","type":"address","internalType":"address"},{"name":"_merchant","type":"address","internalType":"address"}],"stateMutability":"nonpayable"},{"type":"function","name":"DEFAULT_ADMIN_ROLE","inputs":[],"outputs":[{"name":"","type":"bytes32","internalType":"bytes32"}],"stateMutability":"view"},{"type":"function","name":"DISPUTE_FEE","inputs":[],"outputs":[{"name":"","type":"uint256","internalType":"uint256"}],"stateMutability":"view"},{"type":"function","name":"DISPUTE_PERIOD","inputs":[],"outputs":[{"name":"","type":"uint256","internalType":"uint256"}],"stateMutability":"view"},{"type":"function","name":"MERCHANT_FEE_PERCENTAGE","inputs":[],"outputs":[{"name":"","type":"uint256","internalType":"uint256"}],"stateMutability":"view"},{"type":"function","name":"MERCHANT_ROLE","inputs":[],"outputs":[{"name":"","type":"bytes32","internalType":"bytes32"}],"stateMutability":"view"},{"type":"function","name":"MODERATOR_ROLE","inputs":[],"outputs":[{"name":"","type":"bytes32","internalType":"bytes32"}],"stateMutability":"view"},{"type":"function","name":"REQUIRED_APPROVALS","inputs":[],"outputs":[{"name":"","type":"uint8","internalType":"uint8"}],"stateMutability":"view"},{"type":"function","name":"approveDispute","inputs":[{"name":"transactionId","type":"uint256","internalType":"uint256"}],"outputs":[],"stateMutability":"nonpayable"},{"type":"function","name":"createTransaction","inputs":[{"name":"amount","type":"uint256","internalType":"uint256"}],"outputs":[],"stateMutability":"nonpayable"},{"type":"function","name":"disputeTransaction","inputs":[{"name":"transactionId","type":"uint256","internalType":"uint256"}],"outputs":[],"stateMutability":"nonpayable"},{"type":"function","name":"getMerchantTransactions","inputs":[],"outputs":[{"name":"","type":"uint256[]","internalType":"uint256[]"}],"stateMutability":"view"},{"type":"function","name":"getRoleAdmin","inputs":[{"name":"role","type":"bytes32","internalType":"bytes32"}],"outputs":[{"name":"","type":"bytes32","internalType":"bytes32"}],"stateMutability":"view"},{"type":"function","name":"grantRole","inputs":[{"name":"role","type":"bytes32","internalType":"bytes32"},{"name":"account","type":"address","internalType":"address"}],"outputs":[],"stateMutability":"nonpayable"},{"type":"function","name":"hasRole","inputs":[{"name":"role","type":"bytes32","internalType":"bytes32"},{"name":"account","type":"address","internalType":"address"}],"outputs":[{"name":"","type":"bool","internalType":"bool"}],"stateMutability":"view"},{"type":"function","name":"i_merchant","inputs":[],"outputs":[{"name":"","type":"address","internalType":"address"}],"stateMutability":"view"},{"type":"function","name":"releasePayment","inputs":[{"name":"transactionId","type":"uint256","internalType":"uint256"}],"outputs":[],"stateMutability":"nonpayable"},{"type":"function","name":"renounceRole","inputs":[{"name":"role","type":"bytes32","internalType":"bytes32"},{"name":"account","type":"address","internalType":"address"}],"outputs":[],"stateMutability":"nonpayable"},{"type":"function","name":"resolveDispute","inputs":[{"name":"transactionId","type":"uint256","internalType":"uint256"},{"name":"buyerWon","type":"bool","internalType":"bool"}],"outputs":[],"stateMutability":"nonpayable"},{"type":"function","name":"revokeRole","inputs":[{"name":"role","type":"bytes32","internalType":"bytes32"},{"name":"account","type":"address","internalType":"address"}],"outputs":[],"stateMutability":"nonpayable"},{"type":"function","name":"s_transactionCount","inputs":[],"outputs":[{"name":"","type":"uint256","internalType":"uint256"}],"stateMutability":"view"},{"type":"function","name":"s_transactions","inputs":[{"name":"","type":"uint256","internalType":"uint256"}],"outputs":[{"name":"buyer","type":"address","internalType":"address"},{"name":"amount","type":"uint256","internalType":"uint256"},{"name":"timestamp","type":"uint256","internalType":"uint256"},{"name":"isDisputed","type":"bool","internalType":"bool"},{"name":"isResolved","type":"bool","internalType":"bool"},{"name":"approvalCount","type":"uint8","internalType":"uint8"}],"stateMutability":"view"},{"type":"function","name":"s_usdcToken","inputs":[],"outputs":[{"name":"","type":"address","internalType":"contract IERC20"}],"stateMutability":"view"},{"type":"function","name":"supportsInterface","inputs":[{"name":"interfaceId","type":"bytes4","internalType":"bytes4"}],"outputs":[{"name":"","type":"bool","internalType":"bool"}],"stateMutability":"view"},{"type":"function","name":"withdrawFees","inputs":[{"name":"amount","type":"uint256","internalType":"uint256"}],"outputs":[],"stateMutability":"nonpayable"},{"type":"event","name":"DisputeApproved","inputs":[{"name":"transactionId","type":"uint256","indexed":true,"internalType":"uint256"},{"name":"moderator","type":"address","indexed":false,"internalType":"address"}],"anonymous":false},{"type":"event","name":"DisputeResolved","inputs":[{"name":"transactionId","type":"uint256","indexed":true,"internalType":"uint256"},{"name":"buyerWon","type":"bool","indexed":false,"internalType":"bool"}],"anonymous":false},{"type":"event","name":"FeesWithdrawn","inputs":[{"name":"admin","type":"address","indexed":true,"internalType":"address"},{"name":"amount","type":"uint256","indexed":false,"internalType":"uint256"}],"anonymous":false},{"type":"event","name":"PaymentReleased","inputs":[{"name":"transactionId","type":"uint256","indexed":true,"internalType":"uint256"},{"name":"amount","type":"uint256","indexed":false,"internalType":"uint256"},{"name":"fee","type":"uint256","indexed":false,"internalType":"uint256"}],"anonymous":false},{"type":"event","name":"RoleAdminChanged","inputs":[{"name":"role","type":"bytes32","indexed":true,"internalType":"bytes32"},{"name":"previousAdminRole","type":"bytes32","indexed":true,"internalType":"bytes32"},{"name":"newAdminRole","type":"bytes32","indexed":true,"internalType":"bytes32"}],"anonymous":false},{"type":"event","name":"RoleGranted","inputs":[{"name":"role","type":"bytes32","indexed":true,"internalType":"bytes32"},{"name":"account","type":"address","indexed":true,"internalType":"address"},{"name":"sender","type":"address","indexed":true,"internalType":"address"}],"anonymous":false},{"type":"event","name":"RoleRevoked","inputs":[{"name":"role","type":"bytes32","indexed":true,"internalType":"bytes32"},{"name":"account","type":"address","indexed":true,"internalType":"address"},{"name":"sender","type":"address","indexed":true,"internalType":"address"}],"anonymous":false},{"type":"event","name":"TransactionCreated","inputs":[{"name":"transactionId","type":"uint256","indexed":true,"internalType":"uint256"},{"name":"buyer","type":"address","indexed":false,"internalType":"address"},{"name":"amount","type":"uint256","indexed":false,"internalType":"uint256"}],"anonymous":false},{"type":"event","name":"TransactionDisputed","inputs":[{"name":"transactionId","type":"uint256","indexed":true,"internalType":"uint256"}],"anonymous":false}],"bytecode":{"object":"0x60a06040523480156200001157600080fd5b506040516200199438038062001994833981016040819052620000349162000158565b600180546001600160a01b0319166001600160a01b03848116919091179091558116608052620000666000336200009a565b620000927f3c4a2d89ed8b4cf4347fec87df1c38410f8fc538bf9fd64c10f2717bc0feff36826200009a565b505062000190565b6000828152602081815260408083206001600160a01b038516845290915290205460ff1662000137576000828152602081815260408083206001600160a01b03851684529091529020805460ff19166001179055620000f63390565b6001600160a01b0316816001600160a01b0316837f2f8788117e7eff1d82e926ec794901d17c78024a50270940304540a733656f0d60405160405180910390a45b5050565b80516001600160a01b03811681146200015357600080fd5b919050565b600080604083850312156200016c57600080fd5b62000177836200013b565b915062000187602084016200013b565b90509250929050565b6080516117da620001ba600039600081816102890152818161069b0152610f3c01526117da6000f3fe608060405234801561001057600080fd5b50600436106101585760003560e01c8063797669c9116100c3578063b3d358391161007c578063b3d3583914610312578063d547741f14610339578063da165ddb1461034c578063dc755e9d1461035f578063e70f331a14610369578063ec3fe3de1461037257600080fd5b8063797669c9146102ab57806382820635146102d257806388685cd9146102da57806391d14854146102ed578063a217fddf14610300578063a5bbe22b1461030857600080fd5b806349bf2caf1161011557806349bf2caf146102065780634fdb1ace1461021957806356d400a114610244578063599c5533146102575780635e318e071461027157806378c84a7d1461028457600080fd5b806301ffc9a71461015d578063248a9ca3146101855780632f2ff15d146101b657806334b25ee2146101cb57806335833c34146101de57806336568abe146101f3575b600080fd5b61017061016b366004611493565b610407565b60405190151581526020015b60405180910390f35b6101a86101933660046114bd565b60009081526020819052604090206001015490565b60405190815260200161017c565b6101c96101c43660046114d6565b61043e565b005b6101c96101d9366004611520565b610468565b6101e66107a6565b60405161017c9190611545565b6101c96102013660046114d6565b610834565b6101c96102143660046114bd565b6108b2565b60015461022c906001600160a01b031681565b6040516001600160a01b03909116815260200161017c565b6101c96102523660046114bd565b610aba565b61025f600381565b60405160ff909116815260200161017c565b6101c961027f3660046114bd565b610c79565b61022c7f000000000000000000000000000000000000000000000000000000000000000081565b6101a87f71f3d55856e4058ed06ee057d79ada615f65cdf5f9ee88181b914225088f834f81565b6101a8606481565b6101c96102e83660046114bd565b610e00565b6101706102fb3660046114d6565b611019565b6101a8600081565b6101a86201518081565b6101a87f3c4a2d89ed8b4cf4347fec87df1c38410f8fc538bf9fd64c10f2717bc0feff3681565b6101c96103473660046114d6565b611042565b6101c961035a3660046114bd565b611067565b6101a86298968081565b6101a860035481565b6103c96103803660046114bd565b600260208190526000918252604090912080546001820154928201546003909201546001600160a01b0390911692919060ff808216916101008104821691620100009091041686565b604080516001600160a01b039097168752602087019590955293850192909252151560608401521515608083015260ff1660a082015260c00161017c565b60006001600160e01b03198216637965db0b60e01b148061043857506301ffc9a760e01b6001600160e01b03198316145b92915050565b60008281526020819052604090206001015461045981611196565b61046383836111a3565b505050565b7f71f3d55856e4058ed06ee057d79ada615f65cdf5f9ee88181b914225088f834f61049281611196565b6000838152600260205260409020600381015460ff166104f45760405162461bcd60e51b8152602060048201526018602482015277151c985b9cd858dd1a5bdb881b9bdd08191a5cdc1d5d195960421b60448201526064015b60405180910390fd5b6003810154610100900460ff16156105495760405162461bcd60e51b8152602060048201526018602482015277111a5cdc1d5d1948185b1c9958591e481c995cdbdb1d995960421b60448201526064016104eb565b60038181015462010000900460ff16101561059d5760405162461bcd60e51b81526020600482015260146024820152734e6f7420656e6f75676820617070726f76616c7360601b60448201526064016104eb565b60038101805461ff001916610100179055821561067c576001805482549183015460405163a9059cbb60e01b81526001600160a01b039384166004820152602481019190915291169063a9059cbb906044016020604051808303816000875af115801561060e573d6000803e3d6000fd5b505050506040513d601f19601f820116820180604052508101906106329190611589565b6106775760405162461bcd60e51b81526020600482015260166024820152751499599d5b99081d1bc8189d5e595c8819985a5b195960521b60448201526064016104eb565b610764565b600180549082015460405163a9059cbb60e01b81526001600160a01b037f000000000000000000000000000000000000000000000000000000000000000081166004830152602482019290925291169063a9059cbb906044016020604051808303816000875af11580156106f4573d6000803e3d6000fd5b505050506040513d601f19601f820116820180604052508101906107189190611589565b6107645760405162461bcd60e51b815260206004820152601b60248201527f5472616e7366657220746f206d65726368616e74206661696c6564000000000060448201526064016104eb565b837f5a87909bff68caaaaf0b3fd9c74eeccc928832f879315e5c6fb7a73612f26c0c84604051610798911515815260200190565b60405180910390a250505050565b6060600060035467ffffffffffffffff8111156107c5576107c56115a6565b6040519080825280602002602001820160405280156107ee578160200160208202803683370190505b50905060005b60035481101561082e5780828281518110610811576108116115bc565b602090810291909101015280610826816115e8565b9150506107f4565b50919050565b6001600160a01b03811633146108a45760405162461bcd60e51b815260206004820152602f60248201527f416363657373436f6e74726f6c3a2063616e206f6e6c792072656e6f756e636560448201526e103937b632b9903337b91039b2b63360891b60648201526084016104eb565b6108ae8282611227565b5050565b600081815260026020526040902080546001600160a01b031633146109125760405162461bcd60e51b81526020600482015260166024820152754f6e6c792062757965722063616e206469737075746560501b60448201526064016104eb565b6201518081600201546109259190611601565b42111561096b5760405162461bcd60e51b8152602060048201526014602482015273111a5cdc1d5d19481c195c9a5bd908195b99195960621b60448201526064016104eb565b600381015460ff16156109b35760405162461bcd60e51b815260206004820152601060248201526f105b1c9958591e48191a5cdc1d5d195960821b60448201526064016104eb565b6001546040516323b872dd60e01b81523360048201523060248201526298968060448201526001600160a01b03909116906323b872dd906064016020604051808303816000875af1158015610a0c573d6000803e3d6000fd5b505050506040513d601f19601f82011682018060405250810190610a309190611589565b610a7c5760405162461bcd60e51b815260206004820152601b60248201527f4469737075746520666565207472616e73666572206661696c6564000000000060448201526064016104eb565b60038101805460ff1916600117905560405182907f61e60550bebc2b32282d4baacb9094d9c194d45912cea3e6b10440d24bf5d0fa90600090a25050565b7f71f3d55856e4058ed06ee057d79ada615f65cdf5f9ee88181b914225088f834f610ae481611196565b6000828152600260205260409020600381015460ff16610b415760405162461bcd60e51b8152602060048201526018602482015277151c985b9cd858dd1a5bdb881b9bdd08191a5cdc1d5d195960421b60448201526064016104eb565b6003810154610100900460ff1615610b965760405162461bcd60e51b8152602060048201526018602482015277111a5cdc1d5d1948185b1c9958591e481c995cdbdb1d995960421b60448201526064016104eb565b33600090815260048201602052604090205460ff1615610beb5760405162461bcd60e51b815260206004820152601060248201526f105b1c9958591e48185c1c1c9bdd995960821b60448201526064016104eb565b3360009081526004820160205260409020805460ff1916600117905560038101805462010000900460ff16906002610c2283611614565b825460ff9182166101009390930a92830291909202199091161790555060405133815283907fe877db1904a9544a057fc69e5d3d60105163902217060d44c3d12f7fd1c8fab09060200160405180910390a2505050565b6000610c8481611196565b6001546040516370a0823160e01b81523060048201526001600160a01b03909116906370a0823190602401602060405180830381865afa158015610ccc573d6000803e3d6000fd5b505050506040513d601f19601f82011682018060405250810190610cf09190611633565b821115610d365760405162461bcd60e51b8152602060048201526014602482015273496e73756666696369656e742062616c616e636560601b60448201526064016104eb565b60015460405163a9059cbb60e01b8152336004820152602481018490526001600160a01b039091169063a9059cbb906044016020604051808303816000875af1158015610d87573d6000803e3d6000fd5b505050506040513d601f19601f82011682018060405250810190610dab9190611589565b610dc75760405162461bcd60e51b81526004016104eb9061164c565b60405182815233907fc0819c13be868895eb93e40eaceb96de976442fa1d404e5c55f14bb65a8c489a9060200160405180910390a25050565b7f3c4a2d89ed8b4cf4347fec87df1c38410f8fc538bf9fd64c10f2717bc0feff36610e2a81611196565b6000828152600260205260409020600381015460ff1615610e8d5760405162461bcd60e51b815260206004820152601760248201527f5472616e73616374696f6e20697320646973707574656400000000000000000060448201526064016104eb565b620151808160020154610ea09190611601565b4211610eee5760405162461bcd60e51b815260206004820152601860248201527f4469737075746520706572696f64206e6f7420656e646564000000000000000060448201526064016104eb565b600061271060648360010154610f049190611675565b610f0e919061168c565b90506000818360010154610f2291906116ae565b60015460405163a9059cbb60e01b81526001600160a01b037f0000000000000000000000000000000000000000000000000000000000000000811660048301526024820184905292935091169063a9059cbb906044016020604051808303816000875af1158015610f97573d6000803e3d6000fd5b505050506040513d601f19601f82011682018060405250810190610fbb9190611589565b610fd75760405162461bcd60e51b81526004016104eb9061164c565b604080518281526020810184905286917f3c70b1e8034b5738ec77fbfdaa4d28906a0b3160018d67a2dc7b534e53e33fe0910160405180910390a25050505050565b6000918252602082815260408084206001600160a01b0393909316845291905290205460ff1690565b60008281526020819052604090206001015461105d81611196565b6104638383611227565b6001546040516323b872dd60e01b8152336004820152306024820152604481018390526001600160a01b03909116906323b872dd906064016020604051808303816000875af11580156110be573d6000803e3d6000fd5b505050506040513d601f19601f820116820180604052508101906110e29190611589565b6110fe5760405162461bcd60e51b81526004016104eb9061164c565b6003805460008181526002602081815260409283902080546001600160a01b031916339081178255600182018890554293820193909355948501805462ffffff191690558251918252810185905291929183917ffd27d176b6ebb21e0182c0e43df5818e0d632867e1eb47c383c58d221205fce3910160405180910390a26003805490600061118c836115e8565b9190505550505050565b6111a0813361128c565b50565b6111ad8282611019565b6108ae576000828152602081815260408083206001600160a01b03851684529091529020805460ff191660011790556111e33390565b6001600160a01b0316816001600160a01b0316837f2f8788117e7eff1d82e926ec794901d17c78024a50270940304540a733656f0d60405160405180910390a45050565b6112318282611019565b156108ae576000828152602081815260408083206001600160a01b0385168085529252808320805460ff1916905551339285917ff6391f5c32d9c69d2a47ea670b442974b53935d1edc7fd64eb21e047a839171b9190a45050565b6112968282611019565b6108ae576112ae816001600160a01b031660146112f0565b6112b98360206112f0565b6040516020016112ca9291906116e5565b60408051601f198184030181529082905262461bcd60e51b82526104eb9160040161175a565b606060006112ff836002611675565b61130a906002611601565b67ffffffffffffffff811115611322576113226115a6565b6040519080825280601f01601f19166020018201604052801561134c576020820181803683370190505b509050600360fc1b81600081518110611367576113676115bc565b60200101906001600160f81b031916908160001a905350600f60fb1b81600181518110611396576113966115bc565b60200101906001600160f81b031916908160001a90535060006113ba846002611675565b6113c5906001611601565b90505b600181111561143d576f181899199a1a9b1b9c1cb0b131b232b360811b85600f16601081106113f9576113f96115bc565b1a60f81b82828151811061140f5761140f6115bc565b60200101906001600160f81b031916908160001a90535060049490941c936114368161178d565b90506113c8565b50831561148c5760405162461bcd60e51b815260206004820181905260248201527f537472696e67733a20686578206c656e67746820696e73756666696369656e7460448201526064016104eb565b9392505050565b6000602082840312156114a557600080fd5b81356001600160e01b03198116811461148c57600080fd5b6000602082840312156114cf57600080fd5b5035919050565b600080604083850312156114e957600080fd5b8235915060208301356001600160a01b038116811461150757600080fd5b809150509250929050565b80151581146111a057600080fd5b6000806040838503121561153357600080fd5b82359150602083013561150781611512565b6020808252825182820181905260009190848201906040850190845b8181101561157d57835183529284019291840191600101611561565b50909695505050505050565b60006020828403121561159b57600080fd5b815161148c81611512565b634e487b7160e01b600052604160045260246000fd5b634e487b7160e01b600052603260045260246000fd5b634e487b7160e01b600052601160045260246000fd5b6000600182016115fa576115fa6115d2565b5060010190565b80820180821115610438576104386115d2565b600060ff821660ff810361162a5761162a6115d2565b60010192915050565b60006020828403121561164557600080fd5b5051919050565b6020808252600f908201526e151c985b9cd9995c8819985a5b1959608a1b604082015260600190565b8082028115828204841417610438576104386115d2565b6000826116a957634e487b7160e01b600052601260045260246000fd5b500490565b81810381811115610438576104386115d2565b60005b838110156116dc5781810151838201526020016116c4565b50506000910152565b7f416363657373436f6e74726f6c3a206163636f756e742000000000000000000081526000835161171d8160178501602088016116c1565b7001034b99036b4b9b9b4b733903937b6329607d1b601791840191820152835161174e8160288401602088016116c1565b01602801949350505050565b60208152600082518060208401526117798160408501602087016116c1565b601f01601f19169190910160400192915050565b60008161179c5761179c6115d2565b50600019019056fea264697066735822122009ff57d8b43a24388f4b1bb1a326bebed6aa825139281d9ea695689e08486e7664736f6c63430008120033","linkReferences":{}},"methodIdentifiers":{"DEFAULT_ADMIN_ROLE()":"a217fddf","DISPUTE_FEE()":"dc755e9d","DISPUTE_PERIOD()":"a5bbe22b","MERCHANT_FEE_PERCENTAGE()":"82820635","MERCHANT_ROLE()":"b3d35839","MODERATOR_ROLE()":"797669c9","REQUIRED_APPROVALS()":"599c5533","approveDispute(uint256)":"56d400a1","createTransaction(uint256)":"da165ddb","disputeTransaction(uint256)":"49bf2caf","getMerchantTransactions()":"35833c34","getRoleAdmin(bytes32)":"248a9ca3","grantRole(bytes32,address)":"2f2ff15d","hasRole(bytes32,address)":"91d14854","i_merchant()":"78c84a7d","releasePayment(uint256)":"88685cd9","renounceRole(bytes32,address)":"36568abe","resolveDispute(uint256,bool)":"34b25ee2","revokeRole(bytes32,address)":"d547741f","s_transactionCount()":"e70f331a","s_transactions(uint256)":"ec3fe3de","s_usdcToken()":"4fdb1ace","supportsInterface(bytes4)":"01ffc9a7","withdrawFees(uint256)":"5e318e07"},"id":36}